:020000040800F2
:1000000000000220013F0008151A00081D1A000810
:100010001F1A0008211A0008231A00080000000017
:10002000000000000000000000000000251A000889
:10003000271A000800000000291A00082B1A0008DF
:10004000513F0008513F0008513F0008513F000850
:10005000513F0008513F0008513F0008513F000840
:10006000513F0008513F0008513F0008513F000830
:10007000513F0008513F0008513F0008513F000820
:10008000513F0008513F0008513F0008513F000810
:10009000513F0008513F0008513F0008513F000800
:1000A000513F00082D1A0008513F0008513F000839
:1000B000513F0008513F0008513F0008513F0008E0
:1000C000513F0008513F0008513F0008513F0008D0
:1000D000513F0008491A0008513F0008513F0008ED
:1000E000513F0008513F0008513F0008513F0008B0
:1000F000513F0008513F0008753A0008513F000881
:10010000513F0008513F0008513F0008513F00088F
:10011000513F0008513F0008513F0008513F00087F
:10012000513F0008513F0008513F0008513F00086F
:10013000513F0008513F0008513F0008513F00085F
:10014000513F0008513F0008513F0008513F00084F
:10015000513F0008513F0008513F0008513F00083F
:10016000513F0008513F0008513F0008513F00082F
:10017000513F0008513F0008513F000800000000B7
:08018000513F0008513F000847
:1001C00010B5054C237833B9044B13B10448AFF391
:1001D00000800123237010BDD00900200000000022
:1001E00034A4000808B5034B1BB103490348AFF31F
:1001F000008008BD00000000D409002034A40008DD
:1002000081F0004102E000BF83F0004330B54FEAC7
:1002100041044FEA430594EA050F08BF90EA020F34
:100220001FBF54EA000C55EA020C7FEA645C7FEAC7
:10023000655C00F0E2804FEA5454D4EB5555B8BFEA
:100240006D420CDD2C4480EA020281EA030382EA5B
:10025000000083EA010180EA020281EA0303362DED
:1002600088BF30BD11F0004F4FEA01314FF4801CC0
:100270004CEA113102D0404261EB410113F0004FD2
:100280004FEA03334CEA133302D0524263EB430389
:1002900094EA050F00F0A780A4F10104D5F1200E27
:1002A0000DDB02FA0EFC22FA05F2801841F1000182
:1002B00003FA0EF2801843FA05F359410EE0A5F156
:1002C00020050EF1200E012A03FA0EFC28BF4CF087
:1002D000020C43FA05F3C01851EBE37101F000453D
:1002E00007D54FF0000EDCF1000C7EEB00006EEB4A
:1002F0000101B1F5801F1BD3B1F5001F0CD34908D4
:100300005FEA30004FEA3C0C04F101044FEA44522A
:1003100012F5800F80F09A80BCF1004F08BF5FEAB1
:10032000500C50F1000041EB045141EA050130BD91
:100330005FEA4C0C404141EB0101013C28BFB1F5A3
:10034000801FE9D291F0000F04BF01460020B1FAEE
:1003500081F308BF2033A3F10B03B3F120020CDAC1
:100360000C3208DD02F1140CC2F10C0201FA0CF09F
:1003700021FA02F10CE002F11402D8BFC2F1200C04
:1003800001FA02F120FA0CFCDCBF41EA0C019040BA
:10039000E41AA2BF01EB0451294330BD6FEA040403
:1003A0001F3C1CDA0C340EDC04F11404C4F12002EE
:1003B00020FA04F001FA02F340EA030021FA04F300
:1003C00045EA030130BDC4F10C04C4F1200220FA57
:1003D00002F001FA04F340EA0300294630BD21FA95
:1003E00004F0294630BD94F0000F83F4801306BF5B
:1003F00081F480110134013D4EE77FEA645C18BF4F
:100400007FEA655C29D094EA050F08BF90EA020FE5
:1004100005D054EA000C04BF1946104630BD91EADD
:10042000030F1EBF0021002030BD5FEA545C05D1E0
:100430004000494128BF41F0004130BD14F580041F
:100440003CBF01F5801130BD01F0004545F0FE4193
:1004500041F470014FF0000030BD7FEA645C1ABFC8
:10046000194610467FEA655C1CBF0B46024650EAFF
:10047000013406BF52EA033591EA030F41F400212B
:1004800030BD00BF90F0000F04BF0021704730B5B1
:100490004FF4806404F132044FF000054FF0000186
:1004A00050E700BF90F0000F04BF0021704730B547
:1004B0004FF4806404F1320410F0004548BF40421C
:1004C0004FF000013EE700BF42004FEAE2014FEA71
:1004D00031014FEA02701FBF12F07F4393F07F4F4C
:1004E00081F06051704732F07F4208BF704793F04F
:1004F0007F4F04BF41F40021704730B54FF4607462
:1005000001F0004521F000411CE700BF50EA010264
:1005100008BF704730B54FF000050AE050EA01020D
:1005200008BF704730B511F0004502D5404261EB7D
:1005300041014FF4806404F132045FEA915C3FF4BE
:10054000D8AE4FF003025FEADC0C18BF03325FEA5B
:10055000DC0C18BF033202EBDC02C2F1200300FA0C
:1005600003FC20FA02F001FA03FE40EA0E0021FA31
:1005700002F11444BDE600BF70B54FF0FF0C4CF41F
:10058000E06C1CEA11541DBF1CEA135594EA0C0FD1
:1005900095EA0C0F00F0DEF82C4481EA030621EA0C
:1005A0004C5123EA4C5350EA013518BF52EA033547
:1005B00041F4801143F4801338D0A0FB02CE4FF0F9
:1005C0000005E1FB02E506F00042E0FB03E54FF029
:1005D0000006E1FB03569CF0000F18BF4EF0010E21
:1005E000A4F1FF04B6F5007F64F5407404D25FEA1D
:1005F0004E0E6D4146EB060642EAC62141EA5551D0
:100600004FEAC52040EA5E504FEACE2EB4F1FD0C11
:1006100088BFBCF5E06F1ED8BEF1004F08BF5FEA8F
:10062000500E50F1000041EB045170BD06F0004641
:1006300046EA010140EA020081EA0301B4EB5C04EE
:10064000C2BFD4EB0C0541EA045170BD41F48011E6
:100650004FF0000E013C00F3AB8014F1360FDEBF0B
:10066000002001F0004170BDC4F10004203C35DAE7
:100670000C341BDC04F11404C4F1200500FA05F36A
:1006800020FA04F001FA05F240EA020001F000420B
:1006900021F0004110EBD37021FA04F642EB060181
:1006A0005EEA430E08BF20EAD37070BDC4F10C04AB
:1006B000C4F1200500FA04F320FA05F001FA04F26F
:1006C00040EA020001F0004110EBD37041F100015B
:1006D0005EEA430E08BF20EAD37070BDC4F1200566
:1006E00000FA05F24EEA020E20FA04F301FA05F2CE
:1006F00043EA020321FA04F001F0004121FA04F276
:1007000020EA020000EBD3705EEA430E08BF20EA45
:10071000D37070BD94F0000F0FD101F0004640007F
:1007200041EB010111F4801F08BF013CF7D041EA01
:10073000060195F0000F18BF704703F00046520005
:1007400043EB030313F4801F08BF013DF7D043EAD6
:100750000603704794EA0C0F0CEA135518BF95EA8C
:100760000C0F0CD050EA410618BF52EA4306D1D113
:1007700081EA030101F000414FF0000070BD50EA32
:10078000410606BF1046194652EA430619D094EABC
:100790000C0F02D150EA013613D195EA0C0F05D1A6
:1007A00052EA03361CBF104619460AD181EA0301FA
:1007B00001F0004141F0FE4141F470014FF00000B2
:1007C00070BD41F0FE4141F4780170BD70B54FF04D
:1007D000FF0C4CF4E06C1CEA11541DBF1CEA1355CD
:1007E00094EA0C0F95EA0C0F00F0A7F8A4EB0504AF
:1007F00081EA030E52EA03354FEA013100F08880A6
:100800004FEA03334FF0805545EA131343EA12636E
:100810004FEA022245EA111545EA10654FEA002623
:100820000EF000419D4208BF964244F1FD0404F5DC
:10083000407402D25B084FEA3202B61A65EB030538
:100840005B084FEA32024FF480104FF4002CB6EBF5
:10085000020E75EB030E22BFB61A754640EA0C0075
:100860005B084FEA3202B6EB020E75EB030E22BFB5
:10087000B61A754640EA5C005B084FEA3202B6EBF6
:10088000020E75EB030E22BFB61A754640EA9C00B5
:100890005B084FEA3202B6EB020E75EB030E22BF85
:1008A000B61A754640EADC0055EA060E18D04FEA43
:1008B000051545EA16754FEA06164FEAC30343EAE3
:1008C00052734FEAC2025FEA1C1CC0D111F4801FB0
:1008D0000BD141EA00014FF000004FF0004CB6E7A9
:1008E00011F4801F04BF01430020B4F1FD0C88BF48
:1008F000BCF5E06F3FF6AFAEB5EB030C04BFB6EB53
:10090000020C5FEA500C50F1000041EB045170BD45
:100910000EF0004E4EEA113114EB5C04C2BFD4EB72
:100920000C0541EA045170BD41F480114FF0000EF6
:10093000013C90E645EA060E8DE60CEA135594EA72
:100940000C0F08BF95EA0C0F3FF43BAF94EA0C0F75
:100950000AD150EA01347FF434AF95EA0C0F7FF4EA
:1009600025AF104619462CE795EA0C0F06D152EA3E
:1009700003353FF4FDAE1046194622E750EA410622
:1009800018BF52EA43067FF4C5AE50EA41047FF433
:100990000DAF52EA43057FF4EBAE12E74FEA410296
:1009A00012F5001215D211D56FF47873B3EB6252C1
:1009B00012D94FEAC12343F0004343EA505311F0E8
:1009C000004F23FA02F018BF404270474FF000007A
:1009D000704750EA013005D111F0004008BF6FF0B8
:1009E000004070474FF00000704700BF4FEA4102DF
:1009F000B2F1E04324BFB3F5001CDCF1FE5C0DD97D
:100A000001F0004C4FEAC0024CEA5070B2F1004FC6
:100A100040EB830008BF20F00100704711F0804FC9
:100A200021D113F13872BCBF01F00040704741F48E
:100A300080114FEA5252C2F11802C2F1200C10FA92
:100A40000CF320FA02F018BF40F001004FEAC12376
:100A50004FEAD32303FA0CFC40EA0C0023FA02F31A
:100A60004FEA4303CCE77FEA625307D150EA0133F0
:100A70001EBF4FF0FE4040F44000704701F00040C0
:100A800040F0FE4040F40000704700BF80F000409E
:100A900002E000BF81F0004142001FBF5FEA410356
:100AA00092EA030F7FEA226C7FEA236C6AD04FEA56
:100AB0001262D2EB1363C1BFD2184140484041409B
:100AC000B8BF5B42192B88BF704710F0004F40F44D
:100AD000000020F07F4018BF404211F0004F41F469
:100AE000000121F07F4118BF494292EA030F3FD035
:100AF000A2F1010241FA03FC10EB0C00C3F1200348
:100B000001FA03F100F0004302D5494260EB4000D6
:100B1000B0F5000F13D3B0F1807F06D340084FEA41
:100B2000310102F10102FE2A51D2B1F1004F40EB36
:100B3000C25008BF20F0010040EA0300704749009E
:100B400040EB0000013A28BFB0F5000FEDD2B0FA3B
:100B500080FCACF1080CB2EB0C0200FA0CF0AABF5E
:100B600000EBC25052421843BCBFD04018437047FC
:100B700092F0000F81F4000106BF80F40000013202
:100B8000013BB5E74FEA41037FEA226C18BF7FEAD9
:100B9000236C21D092EA030F04D092F0000F08BF1B
:100BA0000846704790EA010F1CBF0020704712F002
:100BB0007F4F04D1400028BF40F00040704712F141
:100BC00000723CBF00F50000704700F0004343F0A6
:100BD000FE4040F4000070477FEA226216BF0846DC
:100BE0007FEA23630146420206BF5FEA412390EA9F
:100BF000010F40F4800070474FF0000304E000BF95
:100C000010F0004348BF40425FEA000C08BF704745
:100C100043F0964301464FF000001CE050EA010209
:100C200008BF70474FF000030AE000BF50EA01021E
:100C300008BF704711F0004302D5404261EB41010B
:100C40005FEA010C02BF84460146002043F0B64330
:100C500008BFA3F18053A3F50003BCFA8CF2083A55
:100C6000A3EBC25310DB01FA02FC634400FA02FC5E
:100C7000C2F12002BCF1004F20FA02F243EB020065
:100C800008BF20F00100704702F1200201FA02FCC7
:100C9000C2F1200250EA4C0021FA02F243EB0200BA
:100CA00008BF20EADC7070474FF0FF0C1CEAD052FE
:100CB0001EBF1CEAD15392EA0C0F93EA0C0F6FD0BF
:100CC0001A4480EA010C400218BF5FEA41211ED09D
:100CD0004FF0006343EA501043EA5111A0FB013189
:100CE0000CF00040B1F5000F3EBF490041EAD3715E
:100CF0005B0040EA010062F17F02FD2A1DD8B3F1DA
:100D0000004F40EBC25008BF20F00100704790F048
:100D1000000F0CF0004C08BF49024CEA502040EA9A
:100D200051207F3AC2BFD2F1FF0340EAC250704760
:100D300040F400004FF00003013A5DDC12F1190F9E
:100D4000DCBF00F000407047C2F10002410021FA10
:100D500002F1C2F1200200FA02FC5FEA310040F128
:100D6000000053EA4C0308BF20EADC70704792F0A1
:100D7000000F00F0004C02BF400010F4000F013AD9
:100D8000F9D040EA0C0093F0000F01F0004C02BFD4
:100D9000490011F4000F013BF9D041EA0C018FE743
:100DA0000CEAD15392EA0C0F18BF93EA0C0F0AD049
:100DB00030F0004C18BF31F0004CD8D180EA01006F
:100DC00000F00040704790F0000F17BF90F0004F08
:100DD000084691F0000F91F0004F14D092EA0C0FEA
:100DE00001D142020FD193EA0C0F03D14B0218BF7D
:100DF000084608D180EA010000F0004040F0FE40C3
:100E000040F40000704740F0FE4040F4400070475E
:100E10004FF0FF0C1CEAD0521EBF1CEAD15392EADD
:100E20000C0F93EA0C0F69D0A2EB030280EA010CCD
:100E300049024FEA402037D04FF0805343EA111166
:100E400043EA10130CF000408B4238BF5B0042F1C4
:100E50007D024FF4000C8B4224BF5B1A40EA0C0069
:100E6000B3EB510F24BFA3EB510340EA5C00B3EB9B
:100E7000910F24BFA3EB910340EA9C00B3EBD10F89
:100E800024BFA3EBD10340EADC001B0118BF5FEADB
:100E90001C1CE0D1FD2A3FF650AF8B4240EBC25004
:100EA00008BF20F0010070470CF0004C4CEA5020C5
:100EB0007F32C2BFD2F1FF0340EAC250704740F414
:100EC00000004FF00003013A37E792F0000F00F006
:100ED000004C02BF400010F4000F013AF9D040EA84
:100EE0000C0093F0000F01F0004C02BF490011F418
:100EF000000F013BF9D041EA0C0195E70CEAD15310
:100F000092EA0C0F08D142027FF47DAF93EA0C0FF6
:100F10007FF470AF084676E793EA0C0F04D14B02DA
:100F20003FF44CAF08466EE730F0004C18BF31F08C
:100F3000004CCAD130F000427FF45CAF31F0004386
:100F40007FF43CAF5FE700BF4FEA4002B2F1FE4FD3
:100F50000FD34FF09E03B3EB12620DD94FEA00237B
:100F600043F0004310F0004F23FA02F018BF404254
:100F700070474FF00000704712F1610F01D142023B
:100F800005D110F0004008BF6FF0004070474FF0EF
:100F90000000704742000ED2B2F1FE4F0BD34FF06B
:100FA0009E03B3EB126209D44FEA002343F00043DF
:100FB00023FA02F070474FF00000704712F1610F02
:100FC00001D1420202D14FF0FF3070474FF00000D4
:100FD000704700BF53B94AB9002908BF00281CBF99
:100FE0004FF0FF314FF0FF3000F074B9ADF1080C55
:100FF0006DE904CE00F006F8DDF804E0DDE9022337
:1010000004B070472DE9F047089E0D460446884617
:10101000002B4DD18A42944668D9B2FA82F252B17D
:1010200001FA02F3C2F1200120FA01F10CFA02FCEC
:1010300041EA030894404FEA1C45210CB8FBF5FE39
:101040001FFA8CF705FB1E8341EA03430EFB07F1F1
:1010500099420BD91CEB03030EF1FF3080F01E8187
:10106000994240F21B81AEF1020E63445B1AA4B2B6
:10107000B3FBF5F005FB103344EA034400FB07F72C
:10108000A7420AD91CEB040400F1FF3380F0088169
:10109000A74240F2058164440238E41B40EA0E4056
:1010A00000211EB1D4400023C6E90043BDE8F0870B
:1010B0008B4208D9002E00F0EE800021C6E9000521
:1010C0000846BDE8F087B3FA83F100294AD1AB4264
:1010D00002D3824200F2F980841A65EB03030120F7
:1010E0009846002EE2D0C6E90048DFE702B9FFDEED
:1010F000B2FA82F2002A40F09180A1EB0C054FEA8F
:101100001C471FFA8CFE0121B5FBF7F307FB1350B8
:10111000250C45EA00450EFB03F0A84208D91CEB5C
:10112000050503F1FF3802D2A84200F2CB80434606
:101130002D1AA4B2B5FBF7F007FB105544EA05449D
:101140000EFB00FEA64508D91CEB040400F1FF3598
:1011500002D2A64500F2BB802846A4EB0E0440EA6A
:1011600003409EE7C1F120078B4022FA07FC4CEABE
:10117000030C20FA07F405FA01F31C43FD404FEA83
:101180001C4900FA01F3B5FBF9F8200C1FFA8CFE9C
:1011900009FB185540EA054508FB0EF0A84202FA83
:1011A00001F20BD91CEB050508F1FF3A80F08880AD
:1011B000A84240F28580A8F1020865442D1AA4B225
:1011C000B5FBF9F009FB105544EA054500FB0EFE9E
:1011D000AE4508D91CEB050500F1FF346CD2AE45D5
:1011E0006AD90238654440EA0840A0FB0294A5EBA6
:1011F0000E05A542C846A64656D353D05EB1B3EB02
:10120000080265EB0E0505FA07F722FA01F3CD4057
:101210001F43C6E900750021BDE8F087C2F1200335
:1012200020FA03F10CFA02FC25FA03F395400D4372
:101230004FEA1C471FFA8CFEB3FBF7F107FB113096
:101240002B0C43EA004301FB0EF0984204FA02F42F
:1012500008D91CEB030301F1FF382FD298422DD996
:10126000023963441B1AADB2B3FBF7F007FB10332E
:1012700045EA034500FB0EF3AB4208D91CEB05051C
:1012800000F1FF3816D2AB4214D902386544ED1A8A
:1012900040EA014138E73146304607E78646E5E651
:1012A0001846FAE64B45A9D2B9EB020864EB0C0EDE
:1012B0000138A3E74046EAE7204694E74146D1E7F4
:1012C000D0467BE7023B654432E7084609E76444C1
:1012D000023842E7704700BF000000000000000035
:1012E00000000000000000000000000000000000FE
:1012F00000000000000000000000000000000000EE
:1013000090F800F06DE9024520F007016FF0000C45
:1013100010F0070491F820F040F049804FF00004ED
:101320006FF00700D1E9002391F840F000F10800C8
:1013300082FA4CF2A4FA8CF283FA4CF3A2FA8CF300
:101340004BBBD1E9022382FA4CF200F10800A4FA67
:101350008CF283FA4CF3A2FA8CF3E3B9D1E90423BB
:1013600082FA4CF200F10800A4FA8CF283FA4CF3F2
:10137000A2FA8CF37BB9D1E9062301F1200182FAAC
:101380004CF200F10800A4FA8CF283FA4CF3A2FAB2
:101390008CF3002BC6D0002A04BF04301A4612BAC0
:1013A000B2FA82F2FDE8024500EBD2007047D1E9C3
:1013B000002304F00305C4F100004FEAC50514F052
:1013C000040F91F840F00CFA05F562EA05021CBF23
:1013D00063EA050362464FF00004A9E7000000003D
:1013E00001F0FF01102A2BDB10F0070F08D010F8D6
:1013F000013B013A8B422DD010F0070F42B3F6D1DA
:10140000F0B441EA012141EA014122F007047FF0F2
:1014100000070023F0E80256083C85EA010586EA49
:10142000010685FA47F5A3FA87F586FA47F6A5FA85
:1014300087F68EB9EED1F0BC01F0FF0102F0070291
:1014400032B110F8013B013A83EA010313B1F8D13C
:101450000020704701387047002D06BF354603381D
:10146000073815F0010F07D1013015F4807F02BF56
:10147000013015F4C03F0130F0BC0138704700BFA7
:10148000844641EA000313F003036DD1403A41D38F
:1014900051F8043B40F8043B51F8043B40F8043B4E
:1014A00051F8043B40F8043B51F8043B40F8043B3E
:1014B00051F8043B40F8043B51F8043B40F8043B2E
:1014C00051F8043B40F8043B51F8043B40F8043B1E
:1014D00051F8043B40F8043B51F8043B40F8043B0E
:1014E00051F8043B40F8043B51F8043B40F8043BFE
:1014F00051F8043B40F8043B51F8043B40F8043BEE
:1015000051F8043B40F8043B51F8043B40F8043BDD
:10151000403ABDD2303211D351F8043B40F8043B7D
:1015200051F8043B40F8043B51F8043B40F8043BBD
:1015300051F8043B40F8043B103AEDD20C3205D38D
:1015400051F8043B40F8043B043AF9D2043208D085
:10155000D2071CBF11F8013B00F8013B01D30B88F7
:1015600003806046704700BF082A13D38B078DD0D5
:1015700010F003038AD0C3F10403D21ADB071CBFA7
:1015800011F8013B00F8013B80D331F8023B20F811
:10159000023B7BE7043AD9D3013A11F8013B00F84A
:1015A000013BF9D20B7803704B7843708B788370D2
:1015B000604670474FF0FF3C06E000BF4FF0010C63
:1015C00002E000BF4FF0010C4DF804CD4FEA410C92
:1015D0007FEA6C5C4FEA430C18BF7FEA6C5C1BD05F
:1015E00001B050EA410C0CBF52EA430C91EA030FE0
:1015F00002BF90EA020F0020704710F1000F91EA3D
:10160000030F58BF994208BF90422CBFD8176FEA0A
:10161000E37040F0010070474FEA410C7FEA6C5CD8
:1016200002D150EA013C07D14FEA430C7FEA6C5CDF
:10163000D6D152EA033CD3D05DF8040B704700BF0B
:101640008446104662468C461946634600E000BF59
:1016500001B5FFF7B7FF002848BF10F1000F01BD2B
:101660004DF808EDFFF7F4FF0CBF012000205DF8F6
:1016700008FB00BF4DF808EDFFF7EAFF34BF01207B
:1016800000205DF808FB00BF4DF808EDFFF7E0FF14
:1016900094BF012000205DF808FB00BF4DF808ED65
:1016A000FFF7CEFF94BF012000205DF808FB00BFCC
:1016B0004DF808EDFFF7C4FF34BF012000205DF8AE
:1016C00008FB00BF4FEA410C7FEA6C5C02D150EA94
:1016D000013C0AD14FEA430C7FEA6C5C02D152EA2A
:1016E000033C02D14FF0000070474FF001007047FB
:1016F00070B588B00024039404940594069407946C
:1017000000941D4B1A6B42F004021A631A6B02F02C
:1017100004020092009A01941A6B42F080021A634C
:101720001A6B02F080020192019A02941A6B42F045
:1017300001021A631B6B03F001030293029B0F4E1D
:1017400001224FF40051304600F05EFC4FF400538C
:101750000393012504950594069403A9304600F0EF
:1017600061FB4FF4004303930494059503A90448D7
:1017700000F058FB08B070BD00380240000802407D
:101780000000024008B50268034B9A4200D008BD31
:1017900000F06CFAFBE700BF0000014072B6FEE704
:1017A00000B595B03022002108A802F001FC00230A
:1017B0000393049305930693079301932C4A116CAA
:1017C00041F080511164126C02F080520192019A32
:1017D0000293284A116841F480411160126802F4B2
:1017E00080420292029A012203920493052103A8E7
:1017F00000F07CFE002832D1012308934FF480339F
:10180000099302220E924FF480030F930423109346
:10181000A82111911292139308A800F0FBFB00BBC2
:101820000F23039302230493002305934FF4A05343
:1018300006934FF480530793052103A800F056FE4A
:1018400088B90223089300230B930E9308A800F095
:10185000E1FB50B900F0DAFD15B05DF804FBFFF7CD
:101860009DFFFFF79BFFFFF799FFFFF797FF00BF73
:10187000003802400070004008B500F0DDF9FFF7C5
:101880008FFFFFF735FF00F06DF9114800F026F8E3
:10189000104802F041FC02F0E5F802F0EFF84FF4D6
:1018A000FA7000F0F5F90C4C00224FF4005120467C
:1018B00000F0AAFB4FF4FA7000F0EAF901224FF4AD
:1018C0000051204600F0A0FB02F0BAF9E7E700BFA4
:1018D000400B002050A400080008024008B5054B4A
:1018E0001860054B1868002302221946806802F030
:1018F0001BFC08BDEC0900202400002010B50138B5
:1019000001280AD814464FF0FF3392B20748006806
:1019100001F089FB40B9204610BD02F01FFB0923EE
:1019200003604FF0FF30F7E70520F5E7EC090020F2
:1019300008B548B94FF0FF3301220848006801F0AC
:10194000DEFB40B9012008BD02F008FB092303605B
:101950004FF0FF30F7E70520F5E700BFEC09002066
:1019600082B0002100910B4B5A6C42F480425A64C1
:101970005A6C02F480420092009A01911A6C42F073
:1019800080521A641B6C03F080530193019B02B0D8
:10199000704700BF0038024010B588B001460022F1
:1019A000192000F09BF9192000F0D0F900240194CF
:1019B000144B5A6C42F001025A645B6C03F0010351
:1019C0000193019B02A903A800F066FE00F054FEFB
:1019D00043000D48A0FB03239B0C013B0B480C4A22
:1019E000026040F2E732C26043600461846001F04B
:1019F00083F810B1012008B010BD044800F012FFB8
:101A0000F9E700BF0038024083DE1B43F0090020E5
:101A10000000014008B500F05FFEFEE7FEE7FEE7CC
:101A2000FEE7FEE7704770477047704708B5024809
:101A300000F041FF08BD00BFF0090020014B1B680A
:101A400058607047400B002010B5244B1B681A6883
:101A500012F0200F07D05C68E4B2214B1B7803F032
:101A60000503042B03D01D4801F046FC10BD082CD3
:101A700012D01C4B1B78FF2B24D01B4AD4540133AB
:101A80000021D154174A13700D2C22D1144A137817
:101A900043F002031370E6E7124B1B78002BE2D0F1
:101AA0000820FFF7CBFF2020FFF7C8FF0820FFF733
:101AB000C5FF0C4A1378013BDBB213700A4A0021C0
:101AC000D154D0E7013B084AD4540820FFF7B6FFB1
:101AD000DAE72046FFF7B2FFC5E700BF400B002062
:101AE0000C0000203C0B00203C0A00200120704725
:101AF00008B502F033FA162303604FF0FF3008BD3B
:101B000008B54FF0FF31FFF7F3FFFEE708B50346D6
:101B10000B4A126842B10A4A106803446A4693426B
:101B200006D8074A136008BD054A06491160F2E766
:101B300002F014FA0C2303604FF0FF30F3E700BF0C
:101B4000380A0020400C00204FF0FF3070474FF45F
:101B500000534B6000207047012070470020704701
:101B60007047000008B50D480D4B03604FF4E1339A
:101B7000436000238360C36003610C224261836180
:101B8000C36101F021FA30B9044B1A68D36843F0FD
:101B90002003D36008BDFFF701FEF5E7400B0020EE
:101BA0000010014010B588B00023039304930593FF
:101BB00006930793026803F1804303F588339A4242
:101BC00001D008B010BD0024019403F594335A6C81
:101BD00042F010025A645A6C02F010020192019A0B
:101BE00002941A6B42F001021A631B6B03F00103AB
:101BF0000293029B4FF4C0630393022304930323D5
:101C000006930723079303A9054800F00BF9224622
:101C10000421252000F062F8252000F097F8D0E795
:101C2000000002400023024A1370024A13707047FA
:101C30003C0B00203C0A002008B50B4B1A6842F40C
:101C400000721A601A6842F480621A601A6842F4DC
:101C500080721A60032000F02FF80F20FFF79CFE1F
:101C6000FFF77EFE002008BD003C0240034A1168D9
:101C7000034B1B780B441360704700BF840B00209C
:101C800004000020014B1868704700BF840B00203F
:101C900038B50446FFF7F6FF0546B4F1FF3F02D022
:101CA000044B1B781C44FFF7EDFF401BA042FAD306
:101CB00038BD00BF04000020074AD36823F4E06366
:101CC0001B041B0C000200F4E060034343F0BF63FD
:101CD00043F40033D360704700ED00E000B5194BCA
:101CE000DB68C3F30223C3F1070CBCF1040F28BF68
:101CF0004FF0040C03F1040EBEF1060F18D9033B9C
:101D00004FF0FF3E0EFA0CFC21EA0C0199400EFA4E
:101D100003F322EA0303194300280BDB0901C9B2CC
:101D200000F1604000F5614080F800135DF804FBAD
:101D30000023E5E700F00F000901C9B2024B195476
:101D4000F4E700BF00ED00E014ED00E0002807DB41
:101D500000F01F02400901239340024A42F820305C
:101D6000704700BF00E100E070B50446866DFFF7E4
:101D700089FF94F83530DBB2022B06D080236365EF
:101D8000002384F83430012070BD054622681368B2
:101D900023F0160313602268536923F08003536114
:101DA000236CE3B12268136823F0080313602268F0
:101DB000136823F00103136023681B6813F0010FFD
:101DC00011D0FFF75FFF431B052BF5D92023636577
:101DD000032084F83500002384F83430D4E7A36C62
:101DE000002BDFD1E3E7E26D3F239340B360012393
:101DF00084F83530002084F83400C5E790F8353099
:101E0000DBB2022B03D080234365012070470523FA
:101E100080F835300268136823F001031360002056
:101E20007047000000230F2B00F2E48070B582B0F1
:101E300060E085685E000324B44025EA0405CC68B0
:101E4000B4402C438460456825EA02054C68C4F31D
:101E500000129A402A4342605AE0DC08083450F8E5
:101E6000246003F0070295000F22AA4026EA020E22
:101E70000A69AA4042EA0E0240F824205CE00722E8
:101E800000E0002202FA0EF22A4302345A4D45F8CD
:101E900024205A4A94686FEA0C0224EA0C054E6822
:101EA00016F4801F01D04CEA0405544CA560E46888
:101EB00002EA04054E6816F4001F01D04CEA04053E
:101EC0004E4CE560646802EA04054E6816F4003F73
:101ED00001D04CEA0405494C6560246822404D68F5
:101EE00015F4803F01D04CEA0402444C22600133D7
:101EF0000F2B7DD801229A400C6804EA020C32EACA
:101F00000404F4D14C6804F00304013C012C90D982
:101F10004A6802F00302032A09D0C4685D00032264
:101F2000AA4024EA02048A68AA402243C2604A689E
:101F300002F00302022A90D004684FEA430E032203
:101F400002FA0EF224EA02044A6802F0030202FADC
:101F50000EF2224302604A6812F4403FC7D00022CA
:101F60000192274A546C44F480445464526C02F445
:101F700080420192019A9C08A51C1F4A52F82550E4
:101F800003F003024FEA820E0F2202FA0EF225EA54
:101F900002051C4A90423FF474AF02F58062904201
:101FA0001AD002F58062904218D002F58062904209
:101FB00016D002F58062904214D002F58062904201
:101FC00012D002F58062904210D002F580629042F9
:101FD0003FF455AF082255E7012253E7022251E7AB
:101FE00003224FE704224DE705224BE7062249E78B
:101FF00002B070BD704700BF00380140003C014096
:1020000000380240000002400AB1816170470904B3
:1020100081617047002800F0E08170B582B004460D
:10202000036813F0010F3BD09F4B9B6803F00C0338
:10203000042B2CD09C4B9B6803F00C03082B21D065
:102040006368B3F5803F4FD0B3F5A02F52D0964BC5
:102050001A6822F480321A601A6822F480221A6008
:102060006368002B50D0FFF70DFE05468E4B1B68B2
:1020700013F4003F14D1FFF705FE401B6428F5D987
:102080000320B1E1884B5B6813F4800FD8D0864BF6
:102090001B6813F4003F03D06368002B00F09F819E
:1020A000236813F0020F54D07F4B9B6813F00C0F82
:1020B0003ED07D4B9B6803F00C03082B33D0E368C4
:1020C000002B68D0794B01221A60FFF7DBFD054633
:1020D000754B1B6813F0020F54D1FFF7D3FD401B63
:1020E0000228F5D903207FE16F4A136843F4803357
:1020F0001360B5E76C4B1A6842F480221A601A68C4
:1021000042F480321A60ABE7FFF7BCFD0546664B30
:102110001B6813F4003FC3D0FFF7B4FD401B6428D5
:10212000F5D9032060E1604B5B6813F4800FC6D1E2
:102130005D4B1B6813F0020F03D0E368012B40F0E6
:102140005081594A136823F0F803216943EAC10317
:102150001360236813F0080F42D063696BB3534BCD
:102160000122C3F8802EFFF78DFD05464E4B5B6FB5
:1021700013F0020F34D1FFF785FD401B0228F5D97B
:10218000032031E1484A136823F0F803216943EA48
:10219000C1031360DDE7454B00221A60FFF772FDB3
:1021A0000546414B1B6813F0020FD2D0FFF76AFDC2
:1021B000401B0228F5D9032016E13C4B0022C3F84E
:1021C000802EFFF75FFD0546374B5B6F13F0020F64
:1021D00006D0FFF757FD401B0228F5D9032003E185
:1021E000236813F0040F77D02F4B1B6C13F0805F24
:1021F00033D1002301932C4B1A6C42F080521A64A5
:102200001B6C03F080530193019B0125284B1B6835
:1022100013F4807F23D0A368012B34D0052B38D052
:10222000214B1A6F22F001021A671A6F22F0040282
:102230001A67A368002B3DD0FFF724FD06461A4B12
:102240001B6F13F0020F46D1FFF71CFD801B41F2FC
:1022500088339842F3D90320C6E00025D6E7144A14
:10226000136843F480731360FFF70CFD0646104BB0
:102270001B6813F4807FCED1FFF704FD801B02287A
:10228000F5D90320B0E0084A136F43F00103136748
:10229000CFE7054B1A6F42F004021A671A6F42F03B
:1022A00001021A67C5E700BF00380240000047423C
:1022B00000700040FFF7E6FC0646524B1B6F13F020
:1022C000020F08D0FFF7DEFC801B41F288339842F2
:1022D000F3D9032088E0EDB9A369002B00F08380D7
:1022E000484A926802F00C02082A51D0022B17D0FB
:1022F000454B00221A66FFF7C5FC0446414B1B689C
:1023000013F0007F42D0FFF7BDFC001B0228F5D977
:10231000032069E03B4A136C23F080531364DBE72E
:10232000394B00221A66FFF7ADFC0546354B1B689A
:1023300013F0007F06D0FFF7A5FC401B0228F5D95B
:10234000032051E0E369226A1343626A43EA82137D
:10235000A26A5208013A43EA0243E26A43EA02638C
:10236000284A5360284B01221A66FFF78BFC04466B
:10237000244B1B6813F0007F06D1FFF783FC001B82
:102380000228F5D903202FE000202DE000202BE0CB
:10239000012B2BD01B4B5B6803F48001E269914257
:1023A00026D103F03F02216A8A4223D1616A47F6AF
:1023B000C0721A40B2EB811F1ED103F44031A26AF1
:1023C0005208013AB1EB024F18D103F07063E26A90
:1023D000B3EB026F14D1002006E00120704701200A
:1023E00002E0012000E0002002B070BD0120FBE708
:1023F0000120F9E70120F7E70120F5E70120F3E7E5
:102400000120F1E70038024000004742014B012261
:10241000DA6470470000474208B5314B9B6803F00F
:102420000C03042B57D0082B57D12D4B5A6802F0C0
:102430003F025B6813F4800F2AD0294B5968C1F31F
:10244000881C4FEA4C11B1EB0C006EEB0E0E4FEAFC
:102450008E1343EA90638101091A63EB0E03DB00DC
:1024600043EA5173C90011EB0C0C43F1000359020C
:1024700000234FEA4C2041EADC51FEF7ABFD184B3C
:102480005B68C3F3014301335B00B0FBF3F025E06D
:10249000134B5968C1F3881C4FEA4C11B1EB0C0087
:1024A0006EEB0E0E4FEA8E1343EA90638101091A18
:1024B00063EB0E03DB0043EA5173C90011EB0C0C14
:1024C00043F10003990200234FEA8C2041EA9C511A
:1024D000FEF780FDD3E7034800E0034808BD00BFD6
:1024E0000038024000127A000024F400002800F0B6
:1024F0009B8070B50D4604464F4B1B6803F00703E5
:102500008B4208D2CBB24C4A1370136803F0070316
:102510008B4240F08B80236813F0020F17D013F02A
:10252000040F04D0454A936843F4E0539360236852
:1025300013F0080F04D0414A936843F4604393605A
:102540003E4A936823F0F003A1680B43936023682D
:1025500013F0010F32D06368012B21D09A1E012A9B
:1025600025D9364A126812F0020F61D033498A68C1
:1025700022F0030213438B60FFF784FB06462F4BC8
:102580009B6803F00C036268B3EB820F16D0FFF771
:1025900079FB801B41F288339842F0D9032042E056
:1025A000264A126812F4003FE0D101203BE0234AA2
:1025B000126812F0007FD9D1012034E01E4B1B6855
:1025C00003F00703AB4207D9EAB21B4B1A701B6832
:1025D00003F00703AB422DD1236813F0040F06D09C
:1025E000164A936823F4E053E1680B439360236831
:1025F00013F0080F07D0114A936823F46043216950
:1026000043EAC1039360FFF707FF0C4B9B68C3F3DA
:1026100003130B4AD35CD8400A4B18600A4B186866
:10262000FFF7BAF9002070BD012070470120FAE7DA
:102630000120F8E70120F6E7003C024000380240A4
:102640008CA400080000002008000020014B18683E
:10265000704700BF0000002008B5FFF7F7FF044BEC
:102660009B68C3F38223034AD35CD84008BD00BFF4
:10267000003802409CA4000808B5FFF7E7FF044BB0
:102680009B68C3F34233034AD35CD84008BD00BF04
:10269000003802409CA400080F2303600B4B9A688B
:1026A00002F0030242609A6802F0F00282609A68C7
:1026B00002F4E052C2609B68DB0803F4E05303615C
:1026C000034B1B6803F007030B60704700380240A0
:1026D000003C02407047000008B5064BDB6813F071
:1026E000800F00D108BDFFF7F5FF024B80229A73DF
:1026F000F8E700BF0038024030B4036A23F001035A
:102700000362036A4268846924F073040D682C43F1
:1027100023F0020C8B6843EA0C03104DA84203D04F
:1027200005F58065A84205D123F00803CD682B4349
:1027300023F00403094DA84203D005F58065A842A3
:1027400005D122F440724D692A438D692A434260C3
:1027500084614A684263036230BC704700000140F4
:1027600030B4036A23F480730362036A4268C46965
:1027700024F0730C0C6844EA0C0523F400738C6895
:1027800043EA0423114CA04203D004F58064A04224
:1027900006D123F40063CC6843EA042323F4806366
:1027A0000A4CA04203D004F58064A04207D122F471
:1027B00040524C6942EA04128C6942EA04124260B7
:1027C000C5614A68C263036230BC704700000140C3
:1027D00030B4036A23F480530362036A4468C26915
:1027E00022F4E6420D6842EA052223F400538D6884
:1027F00043EA0533094DA84203D005F58065A84298
:1028000004D124F480444D6944EA85144460C261D3
:102810004A680264036230BC704700BF0000014098
:102820007047000090F83D30DBB2012B37D1022316
:1028300080F83D300268D36843F00103D360036839
:10284000194A934220D0B3F1804F1DD0A2F57C42AB
:10285000934219D002F58062934215D002F580624E
:10286000934211D002F5784293420DD002F5705296
:10287000934209D0A2F59432934205D01A6842F0EF
:1028800001021A60002070479A6802F00702062AC7
:1028900007D01A6842F001021A6000207047012038
:1028A00070470020704700BF00000140704770472C
:1028B00070477047704710B5044603681A6912F0F4
:1028C000020F11D0DA6812F0020F0DD06FF0020281
:1028D0001A610123037703689B6913F0030F70D01B
:1028E000FFF7E6FF0023237723681A6912F0040F2D
:1028F00012D0DA6812F0040F0ED06FF004021A61E1
:102900000223237723689B6913F4407F5FD020461E
:10291000FFF7CEFF0023237723681A6912F0080F10
:1029200012D0DA6812F0080F0ED06FF008021A61A8
:10293000042323772368DB6913F0030F4ED020466E
:10294000FFF7B6FF0023237723681A6912F0100FF0
:1029500012D0DA6812F0100F0ED06FF010021A6168
:10296000082323772368DB6913F4407F3DD020469A
:10297000FFF79EFF0023237723681A6912F0010FE7
:1029800003D0DA6812F0010F36D123681A6912F009
:10299000800F03D0DA6812F0800F34D123681A69EF
:1029A00012F0400F03D0DA6812F0400F32D12368E2
:1029B0001A6912F0200F03D0DA6812F0200F30D11C
:1029C00010BDFFF774FF2046FFF773FF8AE720462C
:1029D000FFF76DFF2046FFF76CFF9BE72046FFF7F0
:1029E00066FF2046FFF765FFACE72046FFF75FFF75
:1029F0002046FFF75EFFBDE76FF001021A61204637
:102A0000FEF7C0FEC1E76FF080021A61204600F0B9
:102A1000B0F9C3E76FF040021A612046FFF74AFFA2
:102A2000C5E76FF020021A61204600F0A1F9C7E760
:102A30000368304A904212D0B0F1804F0FD0A2F517
:102A40007C4290420BD002F58062904207D002F5A2
:102A50008062904203D002F57842904203D123F085
:102A600070034A681343234A90422AD0B0F1804F42
:102A700027D0A2F57C42904223D002F5806290429A
:102A80001FD002F5806290421BD002F5784290423E
:102A900017D002F57052904213D002F58062904236
:102AA0000FD002F5806290420BD0A2F5983290428E
:102AB00007D002F58062904203D002F58062904216
:102AC00003D123F44073CA68134323F080034A6997
:102AD000134303608B68C3620B688362054B9842A3
:102AE00003D003F58063984201D10B69036301238E
:102AF000436170470000014040B310B5044690F8B0
:102B00003D30F3B1022384F83D30214651F8040BE7
:102B1000FFF78EFF012384F8463084F83E3084F8B6
:102B20003F3084F8403084F8413084F8423084F8F3
:102B3000433084F8443084F8453084F83D30002038
:102B400010BD80F83C30FFF76BFEDBE701207047DB
:102B500040B310B5044690F83D30F3B1022384F839
:102B60003D30214651F8040BFFF762FF012384F842
:102B7000463084F83E3084F83F3084F8403084F8A2
:102B8000413084F8423084F8433084F8443084F88B
:102B9000453084F83D30002010BD80F83C30FFF710
:102BA00085FEDBE70120704730B4036A23F0100391
:102BB0000362036A4468826922F4E6420D6842EACD
:102BC000052223F020038D6843EA0513114DA84226
:102BD00003D005F58065A84206D123F08003CD68B7
:102BE00043EA051323F040030A4DA84203D005F53C
:102BF0008065A84207D124F440644D6944EA850405
:102C00008D6944EA8504446082614A688263036294
:102C100030BC70470000014090F83C30012B28D0B8
:102C200010B50446012380F83C300C2A1CD8DFE89C
:102C300002F0071B1B1B0C1B1B1B111B1B1B160075
:102C40000068FFF759FD00200FE00068FFF7ACFFB8
:102C500000200AE00068FFF783FD002005E000681F
:102C6000FFF7B6FD002000E00120002384F83C308F
:102C700010BD0220704701F01F01012303FA01FC7F
:102C8000036A23EA0C030362036A02FA01F10B43AD
:102C90000362704738B505460C460C2963D8DFE857
:102CA00001F0076262622E626262346262623A001E
:102CB0000268D36823F00203D3600022214628680B
:102CC000FFF7D9FF2B68294A93422AD002F5806288
:102CD000934226D02B68196A41F21112114208D191
:102CE000196A40F24442114203D11A6822F00102EB
:102CF0001A602CBB012385F83E30002034E00268C6
:102D0000D36823F00403D360D7E70268D36823F0C5
:102D10000803D360D1E70268D36823F01003D360BF
:102D2000CBE7196A41F211121142D3D1196A40F26C
:102D300044421142CED15A6C22F400425A64C9E78F
:102D4000042C06D0082C09D0012385F8413000203E
:102D50000AE0012385F83F30002005E0012385F8D3
:102D60004030002000E0012038BD00BF00000140DD
:102D700070477047026802F10C0353E8003F23F4E8
:102D800090730C3242E800310029F3D1026802F15D
:102D9000140353E8003F23F00103143242E80031EA
:102DA0000029F3D1036B012B05D0202380F83E309E
:102DB000002303637047026802F10C0353E8003FED
:102DC00023F010030C3242E800310029F3D1ECE784
:102DD00090F83D30DBB2212B01D002207047836890
:102DE000B3F5805F17D0036A5A1C02621A78036831
:102DF0005A60C38C9BB2013B9BB2C3844BB902683F
:102E0000D36823F08003D3600268D36843F04003A3
:102E1000D360002070470369002BE4D1036A1B884C
:102E20000268C3F308035360036A02330362E0E7F6
:102E300038B504460268136923F44053C1680B4354
:102E4000136183680269134342691343C2691A43D9
:102E50000168CB6823F4164323F00C031343CB60C3
:102E60000268536923F4407381690B43536103681B
:102E7000314A934206D002F58062934202D0FFF7B6
:102E8000EBFB01E0FFF7F8FBE369B3F5004F29D056
:102E90000021031849411B1841F10001C90041EA12
:102EA0005371DB00181863684FEA83024FEA93738B
:102EB00041F10001FEF78EF8204DA5FB00325109CB
:102EC000642303FB11031B013233A5FB03235B09BE
:102ED00003F0F00202EB011203F00F032168134428
:102EE0008B6038BD0023021843EB0301121841F137
:102EF0000001C90041EA5271D200101841F10001ED
:102F0000626892185B41FEF765F80C4DA5FB003234
:102F10005109642303FB1103DB003233A5FB0323B8
:102F20005B095A0002F4F87202EB011203F0070386
:102F3000216813448B60D4E7001001401F85EB51DA
:102F40002DE9F84305460F4616469946DDF82080E0
:102F50002C68246837EA04030CBF4FF0010C4FF0D3
:102F6000000CB4452DD1B8F1FF3FF1D0B8F1000FFE
:102F700005D0FEF787FEA0EB09004045E8D92A6896
:102F800002F10C0353E8003F23F4D0730C3242E803
:102F900000310029F3D12A6802F1140353E8003FFD
:102FA00023F00103143242E800310029F3D1202339
:102FB00085F83D3085F83E30002385F83C3003200D
:102FC00000E00020BDE8F88358B310B5044690F83F
:102FD0003D300BB3242384F83D302268D36823F4BA
:102FE0000053D3602046FFF723FF2268136923F4C0
:102FF000904313612268536923F02A0353612268C6
:10300000D36843F40053D36000202064202384F865
:103010003D3084F83E3010BD80F83C30FEF7C2FDF4
:10302000D8E7012070472DE9F04182B01E4690F8A4
:103030003D30DBB2202B54D104460D46904600298A
:1030400053D0002A53D090F83C30012B51D00123AB
:1030500080F83C3000230364212380F83D30FEF7E4
:1030600011FE0746A4F82480A4F82680A368B3F5CF
:10307000805F05D04FF00008002384F83C3012E058
:10308000236913B14FF00008F6E7A8460025F3E7DF
:1030900038F8023B2268C3F308035360E28C92B213
:1030A000013A92B2E284E38C9BB273B100963B4644
:1030B000002280212046FFF743FFE0B9002DE7D032
:1030C00015F8012B23685A60E8E700963B4600227A
:1030D00040212046FFF734FF78B9202384F83D30A3
:1030E00000E0022002B0BDE8F0810120FAE70120F3
:1030F000F8E70220F6E70320F4E70320F2E72DE9E2
:10310000F04182B01E4690F83E30DBB2202B5CD1FD
:1031100004460D46904600295BD0002A5BD090F80B
:103120003C30012B59D0012380F83C30002303644C
:10313000222280F83E200363FEF7A4FD0746A4F890
:103140002C80A4F82E80A368B3F5805F05D04FF0E3
:103150000008002384F83C3017E0236913B14FF0D6
:103160000008F6E7A8460025F3E723685B68C3F389
:10317000080328F8023B03E023685B682B700135E5
:10318000E28D92B2013A92B2E285E38D9BB2BBB17D
:1031900000963B46002220212046FFF7D1FEF0B9E1
:1031A000002DE2D0A368B3F5805FE5D013B92369A1
:1031B000002BE1D023685B6803F07F032B70DEE710
:1031C000202384F83E30002000E0022002B0BDE859
:1031D000F0810120FAE70120F8E70220F6E703205A
:1031E000F4E7704708B50168CA6822F04002CA6077
:1031F000202280F83D20FFF7F4FF002008BD704733
:10320000704708B5806B0023C385C384FFF7F8FFC0
:1032100008BD704790F83E30DBB2222B67D183683F
:10322000B3F5805F4DD0826AB3F5805F04D0002B88
:1032300054D10369002B51D103685B681370836A12
:1032400001338362C38D9BB2013B9BB2C385002BCC
:103250004FD100B583B00268D36823F02003D36058
:103260000268D36823F48073D3600268536923F043
:1032700001035361202380F83E30036B012B33D1CF
:1032800000230363026802F10C0353E8003F23F0BC
:1032900010030C3242E800310029F3D103681A68A8
:1032A00012F0100F06D0002201921A6801925B689A
:1032B0000193019B818DFFF7ACFF002003B05DF807
:1032C00004FB0269002AAED1826A03685B68C3F31B
:1032D00008031380836A02338362B3E703685B6881
:1032E00003F07F031370AAE7FFF789FFE5E70220E9
:1032F000704700207047000030B583B00446026874
:103300001368D068516913F00F0505D113F0200F31
:1033100002D010F0200F19D12DB111F0010119D1F7
:1033200010F4907F16D1216B01297DD013F0800F0E
:1033300003D010F0800F40F0158113F0400F03D040
:1033400010F0400F40F0128103B030BD2046FFF76F
:1033500061FFF9E713F0010F06D010F4807F03D06E
:10336000226C42F00102226413F0040F04D019B160
:10337000226C42F00202226413F0020F04D019B151
:10338000226C42F00402226413F0080F07D010F000
:10339000200F00D119B1226C42F008022264226C85
:1033A000002AD1D013F0200F02D010F0200F29D125
:1033B00023685B6903F04003226C12F0080F00D110
:1033C00063B32046FFF7D6FC23685B6913F0400F18
:1033D00020D0226802F1140353E8003F23F0400399
:1033E000143242E800310029F3D1A36B73B1614A72
:1033F0001A65A06BFEF702FD0028A5D0A06B036D37
:103400009847A1E72046FFF705FFD1E72046FFF7E1
:10341000F7FE99E72046FFF7F3FE95E72046FFF712
:10342000EFFE002323648FE713F0100F3FF47EAF0D
:1034300010F0100F3FF47AAF00230193136801934B
:1034400053680193019B536913F0400F50D0A26B56
:1034500013685B689BB2002B3FF476AFA18D994255
:103460007FF672AFE385D369B3F5807F37D02268EA
:1034700002F10C0353E8003F23F480730C3242E85E
:1034800000310029F3D1226802F1140353E8003F10
:1034900023F00103143242E800310029F3D12268FD
:1034A00002F1140353E8003F23F04003143242E8D2
:1034B00000310029F3D1202384F83E300023236318
:1034C000226802F10C0353E8003F23F010030C3292
:1034D00042E800310029F3D1A06BFEF745FCA18D35
:1034E000E38D9BB2C91A89B22046FFF792FE2BE703
:1034F000A18DE38D9BB2C91A89B2E38D9BB2002BDB
:103500003FF422AF00293FF41FAF226802F10C0301
:1035100053E8003F23F490730C3242E80030002857
:10352000F3D1226802F1140353E8003F23F00103B2
:10353000143242E800300028F3D1202384F83E30D2
:1035400000232363226802F10C0353E8003F23F0B9
:1035500010030C3242E800300028F3D12046FFF778
:1035600058FEF1E62046FFF733FCEDE62046FFF774
:1035700039FEE9E603320008012804D0044A136842
:10358000013313607047024A1368013B13607047B0
:10359000A80B002000000000002800F0E8802DE9C2
:1035A000F84F0E4617461D46044600282CDB724B8A
:1035B0001A786FF3C3021A706F4B1B7813F0080F61
:1035C00029D06E4B02229A61012C29D0002C39D1CE
:1035D0006B4C2268536A6849496803EB5103536393
:1035E000002211466748FFF746FB2368DA6842F07D
:1035F0000202DA605A6C42F400425A641A6842F0DD
:1036000001021A60BDE8F88F5B4A137843F00803A3
:1036100013704442D0E7594B4FF400329A61D3E71C
:10362000554B4FF0FF325A611A78022161F30202C2
:103630001A704FF47A725A60534A137843F00103B8
:103640001370C5E7514B1B684FEA13184046FDF74E
:10365000D3FA4F49FDF728FB81462846FDF7CCFAFF
:1036600001464846FDF7D4FBFDF76EFCDFF808B1D4
:10367000CBF810004046FCF705FF3DA3D3E900233B
:10368000FCF77AFF0022434BFDF7A0F8FDF7AEF9F7
:10369000FCF71AFF804689463046FDF7ADFA8246B0
:1036A00001463D48FDF7B4FBFCF70EFF06F0D4FDE4
:1036B00002460B4640464946FCF75EFF0022354B6A
:1036C000FDF784F8FDF76AF98046CBF8040005FBA6
:1036D00005F532495046FDF7E7FA3149FDF798FB09
:1036E00081462846FDF788FA4946FDF791FBFDF72C
:1036F00051FC034600B90123254607FB04F2F019EB
:10370000B2FBF0F1824200D201218B4220D3491B4F
:10371000194BD960184BDB681BB9174B4FF0FF32C0
:10372000DA60154BDA6822449A601B69984517D80D
:10373000114A53601378032161F3020313700E4B97
:1037400000225A61104A137843F0010313703FE7D7
:1037500006FB03F2B2FBF7F25242074BDA60D9E7FD
:10376000054B1A78012161F302021A70E7E77047EE
:103770006F1283C0CAA1E53F900B002000100240E9
:10378000B00B0020000401400C00002000000020CD
:1037900072D9A03C000024407059C443CF0FC93EE9
:1037A0000000204170B582B0002301930093644B68
:1037B0001B68DA6812F0020F15D06FF002021A616E
:1037C0005A6A01925F4A5168019A02EB51020092D3
:1037D000009A5A635C4A13780133DBB21370137892
:1037E000DBB2022B01D002B070BD134600221A706A
:1037F000544B1B7803F00703032B00F29F80DFE894
:1038000003F0021472580024504B1C60504B1C6093
:1038100021464B48FFF73EFA4E4B1A7864F30002FC
:103820001A702146474B5960DDE7464C2078C0F3BB
:10383000C000FFF7A1FE012200214748FFF71BFA55
:10384000424803680133036063690133636166685A
:10385000B1B23F4D2A6802EB46029B00013392FB56
:10386000F3F292B2891A89B22A6802EB460292FBFD
:10387000F3F603FB16232B60A26803689A4207D86D
:10388000E26862612278022060F302022270C9E7D6
:103890002C4B1B699942C5DC304A118099B22C4BE4
:1038A00000221A60274B1A78032060F302021A7074
:1038B000B8E7244C2078C0F3C000FFF75DFE234B2F
:1038C0001A6801321A60218AA2681B689A42A9D834
:1038D000E2686261214A118889B22278022060F38D
:1038E000020222709EE7174C2078C0F3C000FFF759
:1038F00043FE164A1368013313606569013565613B
:10390000606881B2124C236803EB4003AA000132C5
:1039100093FBF2F39BB2C91A89B2236803EB40030D
:1039200093FBF2F002FB10332360002DFFF67AAF19
:10393000044B1A786FF302021A7073E7002171E7E3
:10394000B00B0020900B0020880B0020AC0B002057
:103950008C0B00200C000020000401408A0B00208A
:1039600070B588B0002200921D4B196B41F0100118
:103970001963196B01F01001009100990192196B04
:1039800041F004011963196B01F0040101910199DF
:1039900002921A6B42F010021A631B6B03F01003C1
:1039A0000293029B02250395012404940594069535
:1039B0000C4E03A93046FEF735FA039403A93046AE
:1039C000FEF730FA049506950323079305944023E8
:1039D000039303A90448FEF725FA08B070BD00BFA1
:1039E00000380240001002400008024008B50022E2
:1039F00011462E20FEF772F92E20FEF7A7F908BD1A
:103A000030B589B000240094134B5A6C42F0020286
:103A10005A645B6C03F002030093009B0F4D104B44
:103A20002B604FF6FF73EB600F236B60AC602C6173
:103A30006C612846FFF78CF83023019302940394BD
:103A400008230493059406940794224601A9284666
:103A5000FFF7E2F809B030BD00380240B00B00209B
:103A60000004014008B5FFF77BFFFFF7C9FFFFF730
:103A7000BDFF08BD08B5FFF795FE08BD08B51148A4
:103A800000F0E8FA104800F0E5FA104800F0E2FA19
:103A90000F4800F0DFFA0F4800F0DCFA0E4800F0A3
:103AA000D9FA0E4800F0D6FA0D4800F0D3FA0D48C6
:103AB00000F0D0FA0C4800F0CDFA0C4800F0CAFA39
:103AC00008BD00BFA4A4000800A5000810A50008B8
:103AD00028A5000874A50008C0A500080CA60008C9
:103AE00078A60008A0A60008E0A6000800A7000825
:103AF0002DE9D04382B0044617461E460846FCF71F
:103B0000D1FC0022224BFCF761FE02460B46214805
:103B100000F0A0FA3846FCF7C5FC00221C4BFCF76D
:103B200055FE02460B461C4800F094FA3046FCF75E
:103B3000B9FC06460F4614A3D3E90023FCF71CFD8D
:103B4000804689460022124B30463946FCF73EFE3D
:103B500006460F4600220E4B40464946FCF736FE0D
:103B6000CDE9000132463B460C4800F073FA089953
:103B70000B4800F06FFA21460A4800F06BFA02B0D9
:103B8000BDE8D083AFF300809A99999999192340A1
:103B9000000059404CA7000864A700087CA7000853
:103BA0009CA70008ACA7000870B586B0204A03ABFC
:103BB00007CA03C31A80002634462AE000242CE0FA
:103BC00013F0040F32D04FF47A70FEF761F804F16D
:103BD00018036B4413F90C0CFCF764FC0022154B22
:103BE000FCF7CAFCFCF7DAFE05464FF47A7342F69E
:103BF000E0621146FFF7D0FC00954FF47A7342F66D
:103C0000E06211460C480068FFF772FF0134E4B22D
:103C10000136032E0ADC0B2CD0D0084B1B7813F096
:103C2000010FCDD013F0040FF7D1C9E706B070BD76
:103C3000C4A700080000A940A80B00200C00002029
:103C4000F0B583B09C4B1B78E3B99C4B1B7813F009
:103C5000020F4ED09A4B1B786D2B24D0612B00F0B5
:103C6000B080642B00F0CA80732B00F0E4800D2B31
:103C700000F0FE803F2B00F00681742B19D1FFF776
:103C800093FF1BE08C4B00221A708E4B1B68009335
:103C90008D4B1B688D4A12688D4909688D480068F4
:103CA000FFF726FFD1E7864B5B78202B23D06F2BC5
:103CB00032D0894800F0CEF9FFF7E0FE7F4C237840
:103CC0006FF341032370FDF7ADFF237813F0010F6D
:103CD0000FD013F0040F40F0D980784B1B7813F00D
:103CE000010F02D013F0040FF7D113F0040F40F0CE
:103CF000D18003B0F0BD794800F02CF9714B186009
:103D0000714B1B68714A126871490968FFF744FCDE
:103D1000734800F09FF9D1E7694B9B78762BC8D1A7
:103D2000674BDB78652BC4D1654B1B79202BC0D149
:103D30006C4800F00FF9634B1860062400E0013472
:103D40005F4B1B5D202B01D00D2BF8D101345C485B
:103D5000204400F0FFF85E4B186000E00134584B3F
:103D60001B5D202B01D00D2BF8D101345448204489
:103D700000F0F0F8554B186000E00134504B1B5D2B
:103D8000202B01D00D2BF8D101344D48204400F0F8
:103D9000E1F803464C4E30604C4D4D4C494F2A687B
:103DA00021683868FFF7F8FB3B68009333682A689E
:103DB000216848480068FFF79BFE494800F04AF92F
:103DC0007CE73F4B5B78202B7FF473AF434800F0D8
:103DD000C1F8A0F1470247F6B9439A423FF669AFEE
:103DE0003B4B1860FCF75EFB00223F4BFCF7EEFC00
:103DF00002460B463D4800F02DF95FE7304B5B78FB
:103E0000202B7FF456AF354800F0A4F8A0F147020C
:103E100047F6B9439A423FF64CAF2C4B1860FCF77B
:103E200041FB0022304BFCF7D1FC02460B463048E8
:103E300000F010F942E7224B5B78202B7FF439AF7A
:103E4000264800F087F8A0F10C0244F614639A4269
:103E50003FF62FAF1C4B1860FCF724FB0022224BCF
:103E6000FCF7B4FC02460B46224800F0F3F825E7C5
:103E7000154B1B68154A12681549096811480068F6
:103E8000FFF78AFB1AE7FFF7F9FD17E71A4800F07A
:103E9000E1F822E7194800F0DDF80A4B1B680093AF
:103EA000094B1B68094A12680949096809480068F2
:103EB000FFF71EFE1DE700BF180000200C000020C9
:103EC0003C0A0020200000201C00002014000020DC
:103ED00010000020A80B002008A800083E0A0020BF
:103EE000D0A70008410A0020000059404CA7000854
:103EF000D8A70008F0A7000824A8000838A80008E0
:103F0000DFF834D00D480E490E4A002302E0D458A1
:103F1000C4500433C4188C42F9D30B4A0B4C002311
:103F200001E013600432A242FBD3FDF719FE00F05A
:103F30001BF8FDF7A1FC70470000022000000020E4
:103F4000D009002054AC0008D0090020400C00200B
:103F5000FEE700000A22002100F04EBA014B18686B
:103F6000704700BF2400002070B50D4E0D4D761B2C
:103F7000B61006D0002455F8043B01349847A642F9
:103F8000F9D1094E094D761B06F054FAB61006D049
:103F9000002455F8043B01349847A642F9D170BD7E
:103FA00048AC000848AC000850AC000848AC000819
:103FB000830730B548D0541E002A3FD0CAB203460A
:103FC00001E0013C3AD303F8012B9D07F9D1032C02
:103FD0002DD9CDB245EA05250F2C45EA054536D940
:103FE000A4F1100222F00F0C03F1200EE6444FEA78
:103FF000121C03F1100242E9045542E90255103245
:104000007245F8D10CF1010214F00C0F03EB02120F
:1040100004F00F0C13D0ACF1040323F003030433BA
:10402000134442F8045B9342FBD10CF003042CB11F
:10403000CAB21C4403F8012B9C42FBD130BD64463C
:104040001346002CF4D1F9E703461446BFE71A469D
:10405000A446E0E70FB400B5074983B004AB086895
:1040600053F8042B8168019300F0DCF903B05DF88C
:1040700004EB04B0704700BF2400002070B5054673
:1040800088B008460C46FDF73BF9224EAA6B059016
:1040900001214318CDE9066104A802210494039389
:1040A000AC680190029122B3636E13F0010FB4F972
:1040B0000C309AB201D1980525D5910406D4626ED0
:1040C00043F4005322F40052A3816266284601AAF9
:1040D000214603F081FA636E002814BF4FF0FF35CC
:1040E0000A25DA0702D4A3899B0506D5284608B01D
:1040F00070BD284603F072F8D6E7A06D03F00EFC01
:10410000284608B070BDA06D03F006FCB4F90C3071
:104110009AB2D2E744A80008024B01461868FFF79C
:10412000ADBF00BF240000202DE9F043694CD4F856
:10413000008083B004460E4617461D46B8F1000FB6
:1041400003D0D8F83830002B77D0022F05D0012FBC
:1041500000F2AC80002DC0F2A980636EDA0752D560
:104160002146404603F006F8216B41B104F14003BB
:10417000994202D0404603F029F900232363B4F9A1
:104180000CC000231CF0800FA361636064D12CF489
:104190004A6C2CF0030C022FA4F80CC06AD001ABBF
:1041A0006A462146404603F02BFCA3891843A081B0
:1041B000002D2FD0002E2ED0D8F83830002B38D03C
:1041C000009B2660AB42B4F90C301CBF43F4006383
:1041D000A381012F04BF43F00103A3819AB213F01E
:1041E0000803C4E904652CD0D1075DD56D42A561F3
:1041F000656E002315F00105A36027D00025284631
:1042000003B0BDE8F083A3899B05A9D4A06D03F09A
:1042100083FBA5E7009D284603F022FC0646002804
:1042200047D0A38943F08003A381D8F83830002B0E
:10423000C6D1404602F0D2FFC2E7404602F0CEFFB0
:1042400083E7A360656E15F00105D7D1930524D5EA
:10425000284603B0BDE8F0832169404603F0B6F874
:10426000B4F90CC02CF44A6C2CF0030C022FA4F807
:104270000CC094D10025002204F14303A260012266
:10428000C4E904322360636E4CF0020CD807A4F832
:104290000CC0DDD41CF4007FDAD1A06D03F03EFB2E
:1042A000284603B0BDE8F083A560CBE74FF0FF35AB
:1042B000CEE7DDF80090A94504D0484603F0D0FBD6
:1042C000064620B9B4F90CC04FF0FF35D3E74D4690
:1042D000A7E700BF240000202DE9F04F81464548A4
:1042E0008E4675461EF801CB10F80C4014F00804F9
:1042F000F7D1BCF12D0FE34654D0BCF12B0F08BF12
:104300009EF800B06FF0004808BF05F1020E1BB127
:10431000102B4FD01F4604E0BBF1300F55D00A23BD
:104320001F460025B8FBF7F6284607FB168A07E06C
:10433000864215D329D007FB00C001251EF801BB1A
:10434000ABF1300CBCF1090F06D9ABF1410CBCF15B
:10435000190F08D8ABF1370C63450DDD002DE7DAF6
:104360004FF0FF35EAE7ABF1610CBCF1190F03D850
:10437000ABF1570C6345F1DC002D0BDB04B140427F
:104380000AB195BB1160BDE8F08FE245D3DA4FF07A
:10439000FF35D3E72223C9F800301AB30EF1FF31FD
:1043A0004046EFE79EF800B04FF0004805F1020EDE
:1043B0000124ACE7BBF1300FACD19EF8000000F057
:1043C000DF00582807D01F46ABE79EF8003003F007
:1043D000DF03582B0BD110279EF801B03B460EF19E
:1043E000020E9EE74046BDE8F08F8046D6E70823E0
:1043F0001F4696E7ADA80008012A09D0242A1346D3
:1044000006D8074A844610680A466146FFF764BF2B
:1044100010B5FFF7A3FD16230360002010BD00BFF9
:10442000240000202DE9F04FD5B01C46079191469D
:104430000546099003F068FA0268179210460E9438
:10444000FCF75EFF16901DB1AB6B002B00F02A82CB
:10445000079A536EDD0740F13881B2F90C2091B212
:104460008F0409D4079B42F400529A8191B21A46F4
:104470005B6E23F4005353660E0740F1CB80079B1D
:104480001B69002B00F0C68001F01A030A2B00F014
:10449000CF8000242BAB4D46CDE92944CDE919440A
:1044A000CDE91B44129428939846189400230B944A
:1044B0000024CDE914342B78002B00F09D81AA460E
:1044C00004E01AF8013F002B00F0C780252BF8D13B
:1044D000BAEB050640F0C5809AF80030002B00F0DA
:1044E0008B8100234FF0FF329AF801608DF8833002
:1044F0000A930AF1010A08921F462B244FF0200963
:104500000AF1010AA6F120035A2B00F2ED80DFE840
:1045100013F0EB02EB00EB00E602EB00EB00EB002C
:104520006A00EB00EB005C028002EB0067028A028B
:10453000EB0085025B005B005B005B005B005B00E7
:104540005B005B005B00EB00EB00EB00EB00EB00C3
:10455000EB00EB007A01EB00F801D2017A017A015D
:104560007A01EB00EB00EB00EB00E102EB00EB006B
:104570002D02EB00EB00EB000202EB00A402EB00CB
:10458000EB008307EB00EB00EB00EB00EB00EB0034
:10459000EB00EB007A01EB00F801D4017A017A011B
:1045A0007A01C702D401CD01EB00D402EB006C020A
:1045B0002F02B502CD01EB0002027E008007EB0066
:1045C000EB006107EB007E00A6F1300300221AF831
:1045D000016B02EB820203EB4202A6F13003092BCE
:1045E000F5D90A928EE7DDF824B0584603F08CF92D
:1045F00043681B931846FCF783FE1C9006465846FA
:1046000003F082F983681993002E40F0CD869AF862
:10461000006075E7079D0998294601F0ADFC002868
:1046200041F01C83A98901F01A030A2B7FF431AFF2
:10463000079AB2F90E30002BFFF62BAF536ED80756
:1046400002D4890541F13B810799099823464A46DE
:1046500055B0BDE8F04F01F04FBCBAEB050600F0D5
:10466000CB802A9B33442A93299B0133072BC8E92B
:104670000056299305DC08F108080B9B33440B9383
:104680002AE70799099828AA04F0BEFB80B90DF122
:10469000AC08F2E70799099828AA04F0B5FB0028AE
:1046A00000F09B800D9B1BB10998194602F08EFE0D
:1046B000079A536ED90740F1EA8093895B0601F1AE
:1046C000D9820B9855B0BDE8F08F079BB3F90C2049
:1046D000900591B23FF5C4AE1D46986D03F01CF9EC
:1046E000B5F90C2091B2BBE6002E00F085800022C7
:1046F0008DF8EC608DF883200123CDE90C32069310
:1047000008920F92139210923BAD17F0020302D061
:1047100006990231069117F0840B07D10A99069881
:10472000A1EB0009B9F1000F00F370832A9C8AB154
:10473000299A0DF1830101320134C8F80010072ACB
:104740004FF001012A942992C8F8041000F3B683AF
:1047500008F1080883B1299B21AA01330234C8F863
:104760000020072B4FF002022A942993C8F8042056
:1047700000F3B28308F10808BBF1800F00F06982F2
:10478000089B0C9AA3EB020BBBF1000F00F3AA826B
:10479000FB0500F100820C9BC8F804301C44299BE7
:1047A000C8F800500133072B2A94299300F3228381
:1047B00008F10808780705D50A9B069A9D1A002D6E
:1047C00000F39683DDE90A2306998A42ACBF9B1861
:1047D0005B180B93002C7FF45DAF002329930D9B96
:1047E0001BB10D99099802F0F1FD0DF1AC08554689
:1047F0002B78002B7FF463AE2A9B002B41F0D381F2
:104800000023299354E70E9B073323F00702F2E8B5
:104810000234CDE91434DDE9143424F000440E925E
:10482000994618462146B54B4FF0FF32FCF74AFF38
:10483000002840F0EF84B14B484621464FF0FF324C
:10484000FCF722FF002840F0E584DDE91401002296
:104850000023FCF70FFF002840F067879DF88320B6
:10486000A74DA84B27F080070321472EC8BF1D4640
:1048700000230D9306910C9108930F9313931093BB
:10488000002A3FF442AF069B013306933DE7079BA6
:104890009B899A053FF512AF079CA06D03F03EF887
:1048A000A3890BE7099802F099FCD1E59AF800601A
:1048B00047F0200724E647F01007BA060E9B40F1A8
:1048C0003B84073323F007031A465B6852F8084B12
:1048D0000E929946002BC0F24C84089B013300F0E5
:1048E000D88254EA090327F0800B40F0D382089B5A
:1048F000002B40F0D4825F46002308930C9354AD04
:104900001DE10E9B002253F8041B8DF883208DF8C7
:10491000EC100E93F0E60E9C089B54F8045B4FF0ED
:1049200000098DF88390002D00F093855A1C00F04B
:1049300051861A4649462846FCF752FD0D9000283C
:1049400001F00E810D9BCDF820905B1B0C930E9413
:1049500023EAE3739DF883200693CDF83490CDF8D5
:104960003C90CDF84C90CDF8409089E747F0100787
:1049700017F0200900F0D2830E9B073323F00703C2
:10498000D3F8049053F8084B0E9327F4806B002360
:1049900000228DF88320089A511C00F0B88054EA58
:1049A00009012BF0800740F0B180002A40F0F68525
:1049B000002BA1D11BF001030C9300F014843023D1
:1049C0008DF84F310DF24F15B9E00E9B53F8042BC3
:1049D0000A92002A80F2DA830A9A0E9352420A92CD
:1049E0009AF8006047F004078AE5BD0600F1D1841B
:1049F000FC0600F1D885780600F1A586B90540F1DE
:104A0000D2850E9B0B9953F8042B0E9311705546CB
:104A1000EEE69AF800608DF8834071E59AF8006040
:104A200047F080076CE5524612F8016B2A2E01F020
:104A30003F82A6F13003092B924698BF002201F273
:104A4000BC801AF8016B02EB820203EB4202A6F172
:104A50003003092BF5D9089254E547F0100B1BF0F1
:104A6000200900F076830E9B073323F00703D3F869
:104A7000049053F8084B0E93012389E70E9B53F8DB
:104A8000044B0E93302378268DF884301E4B1893F8
:104A900047F0020B8DF885604FF00009022377E79D
:104AA0009AF80060682E03BF9AF8016047F4007717
:104AB0000AF1010A47F0400722E59AF800606C2EDF
:104AC00003BF9AF8016047F020070AF1010A47F096
:104AD000100715E59AF8006047F0080710E59AF806
:104AE000006047F001070BE59DF88330002B7FF451
:104AF0008EAD9AF800608DF8839001E5FFFFEF7F9F
:104B000048A800084CA8000858A80008BB46012B7C
:104B100000F0C081022B54AD20D1189A04F00F038D
:104B20002409D35C05F8013D44EA09744FEA1919D8
:104B300054EA0903F2D154AB5B1B5F460C9308990E
:104B40000C989DF8832081424FF00003B8BF0146C6
:104B50000D9306910F931393109391E604F00703BE
:104B6000E40844EA49744FEAD909303354EA0901A8
:104B70002A4605F8013DF1D11BF0010FDBD0302BA7
:104B8000D9D03023023A05F8013C54AB9B1A5F465A
:104B90000C931546D3E7652E40F3E680DDE914015A
:104BA00000220023FCF75CFD002800F0DC81299B3B
:104BB000BF4AC8F80020013301340122072B2A9490
:104BC0002993C8F8042000F3CC8408F10808229B3C
:104BD000129A934280F2D682169B179A1C44C8E917
:104BE0000023299B2A940133072B299300F3248463
:104BF00008F10808129B5D1E002D7FF7DBAD102D1C
:104C0000299BDFF8B09240F3BD8449462246B9465D
:104C1000DDF824B0079C10260F4605E008F10808CF
:104C2000103D102D40F3AA8401331032072BC8E940
:104C30000076CDE92932F1DD28AA2146584604F054
:104C4000E3F800287FF42EADDDE929320DF1AC0840
:104C5000E6E70A9B069AA3EB020BBBF1000F7FF776
:104C60008FADBBF1100F299ADFF848922CDD1D960D
:104C700021464E46079CDDF82490102306E0ABF158
:104C8000100BBBF1100F08F108081ADD01321031CA
:104C9000072AC8E90063CDE92921F0DD28AA2146C9
:104CA00048460DF1AC0804F0AFF800287FF4FAACE8
:104CB000ABF1100BBBF1100FDDE929214FF0100310
:104CC000E4DCB1461D9E0C4601325C44072ACDE966
:104CD0002924C8F80090C8F804B000F3A08308F1B4
:104CE00008084DE5BBF1100F299ADFF8C8912DDDBA
:104CF00041462046A8464C46079DDDF824901023E7
:104D000006E0ABF1100BBBF1100F01F1080119DD4A
:104D100001321030072AC1E90043CDE92920F0DD36
:104D200028AA2946484604F06FF800287FF4BAAC58
:104D3000ABF1100BBBF1100FDDE929202BA94FF0CF
:104D40001003E5DC4546A1468846044601325C4432
:104D5000072ACDE92924C8F80090C8F804B000F368
:104D6000D08108F1080813E5129B012B40F38081E4
:104D7000299EC8F80050013601340123072E2A94D9
:104D80002996C8F8043000F37C8308F10808169BC4
:104D9000179A01361C44072EC8E90023CDE929647F
:104DA00000F37C8308F10808DDE9140100220023E8
:104DB000FCF756FC002840F07881129B0136013B3D
:104DC00001351C44072EC8F800502996C8F8043055
:104DD0002A9400F35D8108F108081A9BC8F8043092
:104DE00001361C44072E24ABCDE92964C8F80030F5
:104DF0007FF7DEAC0799099828AA04F005F8002887
:104E00007FF450AC2A9C0DF1AC08D3E4B9F1100F3B
:104E1000DDE929212BDDCDE91D3B1F96DDF824B00E
:104E20004E461024A946079D04E0103E102E08F1BE
:104E3000080817DD0132204B1031072AC8E9003479
:104E4000CDE92921F1DD28AA294658460DF1AC0803
:104E500003F0DAFF00287FF425AC103E102EDDE9C8
:104E60002921E7DCDDE91D3B4D46B1461F9EC8F810
:104E70000490013209EB0104072A0F49C8F8001019
:104E8000CDE9292400F351839DF8832008F1080817
:104E90004DE4BB460A2C79F1000380F00C833034DA
:104EA00001238DF84F415F460C930DF24F1546E6F6
:104EB00088A800089CA800088CA8000807990998F1
:104EC0001D9328AA03F0A0FF00287FF4EBAB2A9CD7
:104ED0001D9B0DF1AC083DE40799099828AA03F041
:104EE00093FF00287FF4DEAB2A9C0DF1AC0843E46D
:104EF000102D299B21DD099FDDF81C90102604E070
:104F0000103D102D08F1080817DD0133BB4A10349D
:104F1000072BC8E90026CDE92934F1DD28AA494646
:104F200038460DF1AC0803F06FFF00287FF4BAABF0
:104F3000103D102DDDE92934E7DC0133AF4AC8F814
:104F400004502C44072BCDE92934C8F800207FF702
:104F500039AC0799099828AA03F056FF00287FF476
:104F6000A1AB2A9C2EE42299002940F31481DDF89C
:104F70004090129B9945A8BF9946B9F1000F0BDDEF
:104F8000299B01334C44072BC8E900592A942993E3
:104F900000F39A8508F10808109EB9F1000FA8BF28
:104FA000A6EB0906002E00F34683DDF840B0790534
:104FB000AB4400F1CE84229B129A934202DBFA07A3
:104FC00040F1B883169A17991444C8E90012299A37
:104FD0002A940132072A299200F3838508F10808F0
:104FE000129AAE18A6EB0B06D51AAE42A8BF2E46F3
:104FF000002E0DDD299BC8F800B001333444072B87
:10500000C8F804602A94299300F3F18508F1080890
:10501000002EA8BFAD1B002D7FF7CCAB102D299B18
:10502000DFF8DC9140F3AE8249462246B946DDF80E
:1050300024B0079C10260F4605E008F10808103D33
:10504000102D40F39B8201331032072BC8E9007604
:10505000CDE92932F1DD28AA2146584603F0D4FED5
:1050600000287FF41FABDDE929320DF1AC08E6E73B
:10507000FE073FF57DAE299EC8F800500136013489
:105080000123072E2A942996C8F804307FF7A3AE8F
:105090000799099828AA03F0B7FE00287FF402AB0D
:1050A000DDE929640DF1AC0897E6129B5D1E002D29
:1050B0007FF793AE102DDFF8489140F37F822246B0
:1050C0000897099C079F4FF0100B05E008F10808AE
:1050D000103D102D40F3708201361032072EC8E9C2
:1050E000009BCDE92962F1DD28AA3946204603F06C
:1050F0008BFE00287FF4D6AADDE929620DF1AC0809
:10510000E6E70799099828AA03F07EFE00287FF4B5
:10511000C9AA2A9C0DF1AC08FFF73ABB17F010039F
:1051200072D117F0400200F0BD820E9A52F8044B83
:105130000E929946A4B228E453F8044B0E93FB0652
:1051400056D47D0651D544F3C0394B4624B2FFF7FF
:10515000C1BB1BF0100340F036811BF0400200F091
:1051600092820E9A52F8044B0E929946A4B20123F1
:105170000EE42D2364428DF8833069EB4909BB4668
:10518000012308E4F8077FF515AB25E59AF80060E0
:105190000E93FFF7B5B9299B1A4AC8F800200133CE
:1051A00001340122072B2A942993C8F8042000F324
:1051B000708408F10808002940F01E82129A07F056
:1051C000010313433FF4F6AA169B1799E218C8E9A6
:1051D0000013299B2A920133072B299300F3618343
:1051E00008F1080819E254ADA9E4B80500F1B48249
:1051F0004FEAE4794B46FFF76DBB00BF8CA800086F
:105200009CA8000888A800080E9B53F8044B0E9336
:10521000FFF7BBBBDDE9140102460B46FCF752FA6F
:10522000002840F0A085612E00F05085412E00F04E
:105230009982089B013326F02003069300F08F85A6
:10524000472B00F07985DDE9141247F480730F9342
:105250001346002BC0F2ED850C9300231D938B4663
:105260000D93069B462B00F04A84452B00F04F859A
:105270000899019126A9049123A9039122A90291D9
:1052800002210C9B099800915A4600F081FF069B71
:10529000472B054640F01C8617F0010FB9460F9FBB
:1052A00040F0D984269B5B1B1293069B472B00F092
:1052B0001883069B462B00F05F84229B1093109B63
:1052C000069A013B412A229300F0AA85F2B20021FE
:1052D000002BB8BF109B8DF89020BABFC3F101031B
:1052E0002D222B22092B8DF8912040F363850DF19F
:1052F0009F04BD4F2246104687FB0321DA17C2EBFD
:10530000A10202EB8201A3EB4101303100F8011C44
:1053100019466329134600F1FF32ECDC3033D9B271
:10532000831E9C4202F8011C40F2CE8513460DF10B
:10533000920201E013F8011B02F8011B9C42F9D113
:105340000DF1A1030DF192021B1A134424AA9B1A1A
:105350001A93129B1A9A012B1A440C9240F37285ED
:105360000C9B169A13440C930C9A002329F4806723
:1053700022EAE27247F480770F9306921393109318
:105380001D9B002B40F0DE829DF883200893FFF7E1
:1053900077BA0E9B0B9853F8041B0E93C217C1E902
:1053A00000025546FFF724BA199B002B3FF42FA9A2
:1053B000199B1B78002B3FF42AA99AF8006047F448
:1053C0008067FFF79DB80E9B53F8044B0E930123A3
:1053D000FFF7DEBA854B189317F0200949D00E9BD2
:1053E000073323F00703D3F8049053F8084B0E93C8
:1053F000F80709D554EA090306D030238DF88560F3
:1054000047F002078DF8843027F4806B0223FFF702
:10541000BFBABB46FFF723BB754B1893DCE7079970
:10542000099828AA03F0F0FC00287FF43BA92A9CE5
:105430000DF1AC08FFF7A4B90799099828AA03F061
:10544000E3FC00287FF42EA92A9C0DF1AC08FFF79D
:10545000D1BB062B294628BF062308950D952A4661
:105460000693644D0E940C930F9113911091FFF7D6
:1054700007BA17F0100369D00E9B53F8044B0E9334
:10548000B6E70799099828AA03F0BEFC00287FF424
:1054900009A9DDE929640DF1AC0878E407990998B8
:1054A00028AA03F0B1FC00287FF4FCA8DDE92964F8
:1054B0000DF1AC0878E40BF480630022CDE90CA870
:1054C0000696DDF8648054AF16469A460CE0002339
:1054D000204649460A22FBF77DFD0A2C79F100039C
:1054E0001BD3044689462F4620460A2200234946FC
:1054F000FBF770FD30327D1E013607F8012CBAF142
:10550000000FE4D098F800309E42E0D1FF2EDED0AC
:105510000A2C79F1000380F0F480CDF864801296B3
:10552000DDE90CA8069EFFF706BB079909981D93B5
:1055300028AA03F069FC00287FF4B4A89DF8832012
:105540002A9C1D9B0DF1AC08FFF7F1B817F0400243
:1055500000F0B6800E9A52F8044B0E929946A4B20F
:1055600046E70799099828AA03F04EFC00287FF423
:1055700099A82A9C0DF1AC08FFF729BB14463A46BE
:105580004F46914601332C44072BC8F80090C8F8C9
:105590000450CDE929347FF70BA92BE4012BBB463E
:1055A0007FF4B8AA7BE40E9B0B9953F8042B554665
:1055B00011600E93FFF71CB9089F144601362C4466
:1055C000072ECDE92964C8F80090C8F804507FF789
:1055D00002AC5DE52846CDF820900E94FBF790FED6
:1055E00003460C90FFF7B4B96766666658A80008D2
:1055F0006CA8000880A80008169B1798E218C8E954
:105600000003299B2A920133072B299300F3498138
:1056100008F108080029C0F2FA821299C8F800506F
:1056200001338C18072BCDE92934C8F804107FF713
:10563000BFA8FFF7DFBB102E299BDFF8C09252DD19
:10564000484642462146A846B946099C079D4FF068
:10565000100B074603E00832103E102E3DDD0133EB
:105660001031072BC2E9007BCDE92931F3DD28AAEF
:105670002946204603F0C8FB00287FF413A8DDE983
:1056800029312BAAE8E70E9B1BF4007914BF53F8CD
:10569000044B53F8044B0E931CBF9146E4B2012314
:1056A000FFF776B90E9B17F4007914BF53F8044B3B
:1056B00053F8044B0E931CBF9146E4B2FFF765B953
:1056C0000E9B17F4007914BF53F8044B53F8044BA6
:1056D0000E931CBF9146E4B28AE6454690463A4690
:1056E0000C464F46914601333444072BCDE929340B
:1056F000C8F80090C8F8046000F3E68008F10808D4
:1057000053E41C9B1B99ED1A1A46284603F00EFB26
:1057100098F801300BB108F10108204649460A22E9
:1057200000230026FBF756FCDBE62D228DF88320B4
:10573000FFF796B8129AAE18A6EB0B06D51AAE4232
:10574000A8BF2E4664E40E9B0B9953F8042B0E93CE
:1057500011805546FFF74CB844F3C0194B4664B26C
:10576000FFF7B8B830238DF8843058238DF8853092
:10577000089B632B47F0020400F39B8200230D93E8
:105780003BADDDE9141247F481730F931346002BF0
:105790002746C0F220820C9326F0200306930023B4
:1057A0008B461D93612E00F0ED82412E7FF459ADA2
:1057B00022AA0C99584603F029FA00224FF07F5391
:1057C000FAF7DAFE02460B46CDE910230022002349
:1057D000FBF746FF08B101232293494B0C93089B2A
:1057E000CDE912A6CDE91E78DDF830A0DDE910671D
:1057F00003F1FF39AB46109506E00022002309F1C2
:10580000FF39FBF72DFFE8B93E4B00223046394601
:10581000FAF7B2FE0F460646FBF7C0F80446FAF761
:1058200041FE0B46024639463046FAF7EDFC1AF8BF
:105830000430B9F1FF3FD8464D460BF8013B064610
:105840000F46DAD1304639462F4BDDF848A0139E7B
:10585000CDF848800022A946DDF87C80109D1E9F6F
:10586000CDE91001FBF724FF002840F03482DDE988
:105870001001254B0022FBF7F3FE10B1E10700F108
:105880002A824B46002B06DB01335B4430220BF8A7
:10589000012B5B45FBD1ABEB0503B94612930F9F80
:1058A00003E50799099828AA03F0AEFA00287EF4C8
:1058B000F9AEDDE9293222990DF1AC08AAE6906D26
:1058C00002F02CF8FEF7C0BE0799099828AA03F049
:1058D0009BFA00287EF4E6AE2A9C0DF1AC08FFF797
:1058E00064BB229B1093DA1C02DB089A93420DDD05
:1058F000023E26F020030693E1E400BF9CA80008C6
:105900006CA80008000030400000E03F109B129A95
:105910009342C0F2568119F0010F00F08782169A67
:1059200013440C9319F4806F03D0109B002B00F3E9
:1059300050820C9B23EAE3730693672600230F93A0
:1059400013931DE52D2200238DF883200893FEF785
:105950009ABF129BCDF830A04246DDF84C801097DC
:10596000EB1808935E46199FDDF87090DDF824A0CF
:10597000DDF81CB00F9B13952146B8F1000F2ED017
:10598000002B6BD1013F08F1FF381B9BC2E90039A6
:10599000299B01334944072B2A91299362DC083261
:1059A000089B38789B1B8342A8BF0346002B1C46EC
:1059B0000ADD2998013019440728C2E900632A91B9
:1059C00029905ADC38780832002CACBF051B0546FC
:1059D000002D15DC06440F9BB8F1000FD0D1002B31
:1059E0003CD1DDE91235EB189E421997B346DDF83C
:1059F00030A0109F90460C4628BF9B46FFF7DBBAAD
:105A0000102D29981DDD102404E0103D102D02F109
:105A1000080216DD0130AC4B10310728C2E9003412
:105A2000CDE92901F1DD28AA5946504603F0ECF9E9
:105A300000287EF437AE103D102DDDE929012BAA98
:105A4000E8DC0130A04B556029440728CDE9290145
:105A500013602CDC387808320644BCE70F9B013B0E
:105A60000F9392E728AA5946504603F0CDF9002833
:105A70007EF418AE2A992BAA92E728AA59465046D6
:105A800003F0C2F900287EF40DAE38782A992BAACB
:105A90009AE70799099828AA03F0B6F900287EF436
:105AA00001AE22992A9C0DF1AC08FFF784BB28AA0D
:105AB0005946504603F0A8F900287EF4F3AD387833
:105AC0002A992BAA064486E70799099828AA03F081
:105AD0009BF900287EF4E6AD2A9C0DF1AC08FFF797
:105AE0005BBA0799099828AA03F08EF900287EF47A
:105AF000D9AD229B2A9C0DF1AC08FFF771BA089929
:105B0000019126A9049123A9039122A902910321BD
