:020000040800F2
:1000000000000220E53E0008151A00081D1A00082D
:100010001F1A0008211A0008231A00080000000017
:10002000000000000000000000000000251A000889
:10003000271A000800000000291A00082B1A0008DF
:10004000353F0008353F0008353F0008353F0008C0
:10005000353F0008353F0008353F0008353F0008B0
:10006000353F0008353F0008353F0008353F0008A0
:10007000353F0008353F0008353F0008353F000890
:10008000353F0008353F0008353F0008353F000880
:10009000353F0008353F0008353F0008353F000870
:1000A000353F00082D1A0008353F0008353F00088D
:1000B000353F0008353F0008353F0008353F000850
:1000C000353F0008353F0008353F0008353F000840
:1000D000353F0008491A0008353F0008353F000841
:1000E000353F0008353F0008353F0008353F000820
:1000F000353F0008353F0008653A0008353F0008E5
:10010000353F0008353F0008353F0008353F0008FF
:10011000353F0008353F0008353F0008353F0008EF
:10012000353F0008353F0008353F0008353F0008DF
:10013000353F0008353F0008353F0008353F0008CF
:10014000353F0008353F0008353F0008353F0008BF
:10015000353F0008353F0008353F0008353F0008AF
:10016000353F0008353F0008353F0008353F00089F
:10017000353F0008353F0008353F0008000000000B
:08018000353F0008353F00087F
:1001C00010B5054C237833B9044B13B10448AFF391
:1001D00000800123237010BDD4090020000000001E
:1001E00038A3000808B5034B1BB103490348AFF31C
:1001F000008008BD00000000D809002038A30008D6
:1002000081F0004102E000BF83F0004330B54FEAC7
:1002100041044FEA430594EA050F08BF90EA020F34
:100220001FBF54EA000C55EA020C7FEA645C7FEAC7
:10023000655C00F0E2804FEA5454D4EB5555B8BFEA
:100240006D420CDD2C4480EA020281EA030382EA5B
:10025000000083EA010180EA020281EA0303362DED
:1002600088BF30BD11F0004F4FEA01314FF4801CC0
:100270004CEA113102D0404261EB410113F0004FD2
:100280004FEA03334CEA133302D0524263EB430389
:1002900094EA050F00F0A780A4F10104D5F1200E27
:1002A0000DDB02FA0EFC22FA05F2801841F1000182
:1002B00003FA0EF2801843FA05F359410EE0A5F156
:1002C00020050EF1200E012A03FA0EFC28BF4CF087
:1002D000020C43FA05F3C01851EBE37101F000453D
:1002E00007D54FF0000EDCF1000C7EEB00006EEB4A
:1002F0000101B1F5801F1BD3B1F5001F0CD34908D4
:100300005FEA30004FEA3C0C04F101044FEA44522A
:1003100012F5800F80F09A80BCF1004F08BF5FEAB1
:10032000500C50F1000041EB045141EA050130BD91
:100330005FEA4C0C404141EB0101013C28BFB1F5A3
:10034000801FE9D291F0000F04BF01460020B1FAEE
:1003500081F308BF2033A3F10B03B3F120020CDAC1
:100360000C3208DD02F1140CC2F10C0201FA0CF09F
:1003700021FA02F10CE002F11402D8BFC2F1200C04
:1003800001FA02F120FA0CFCDCBF41EA0C019040BA
:10039000E41AA2BF01EB0451294330BD6FEA040403
:1003A0001F3C1CDA0C340EDC04F11404C4F12002EE
:1003B00020FA04F001FA02F340EA030021FA04F300
:1003C00045EA030130BDC4F10C04C4F1200220FA57
:1003D00002F001FA04F340EA0300294630BD21FA95
:1003E00004F0294630BD94F0000F83F4801306BF5B
:1003F00081F480110134013D4EE77FEA645C18BF4F
:100400007FEA655C29D094EA050F08BF90EA020FE5
:1004100005D054EA000C04BF1946104630BD91EADD
:10042000030F1EBF0021002030BD5FEA545C05D1E0
:100430004000494128BF41F0004130BD14F580041F
:100440003CBF01F5801130BD01F0004545F0FE4193
:1004500041F470014FF0000030BD7FEA645C1ABFC8
:10046000194610467FEA655C1CBF0B46024650EAFF
:10047000013406BF52EA033591EA030F41F400212B
:1004800030BD00BF90F0000F04BF0021704730B5B1
:100490004FF4806404F132044FF000054FF0000186
:1004A00050E700BF90F0000F04BF0021704730B547
:1004B0004FF4806404F1320410F0004548BF40421C
:1004C0004FF000013EE700BF42004FEAE2014FEA71
:1004D00031014FEA02701FBF12F07F4393F07F4F4C
:1004E00081F06051704732F07F4208BF704793F04F
:1004F0007F4F04BF41F40021704730B54FF4607462
:1005000001F0004521F000411CE700BF50EA010264
:1005100008BF704730B54FF000050AE050EA01020D
:1005200008BF704730B511F0004502D5404261EB7D
:1005300041014FF4806404F132045FEA915C3FF4BE
:10054000D8AE4FF003025FEADC0C18BF03325FEA5B
:10055000DC0C18BF033202EBDC02C2F1200300FA0C
:1005600003FC20FA02F001FA03FE40EA0E0021FA31
:1005700002F11444BDE600BF70B54FF0FF0C4CF41F
:10058000E06C1CEA11541DBF1CEA135594EA0C0FD1
:1005900095EA0C0F00F0DEF82C4481EA030621EA0C
:1005A0004C5123EA4C5350EA013518BF52EA033547
:1005B00041F4801143F4801338D0A0FB02CE4FF0F9
:1005C0000005E1FB02E506F00042E0FB03E54FF029
:1005D0000006E1FB03569CF0000F18BF4EF0010E21
:1005E000A4F1FF04B6F5007F64F5407404D25FEA1D
:1005F0004E0E6D4146EB060642EAC62141EA5551D0
:100600004FEAC52040EA5E504FEACE2EB4F1FD0C11
:1006100088BFBCF5E06F1ED8BEF1004F08BF5FEA8F
:10062000500E50F1000041EB045170BD06F0004641
:1006300046EA010140EA020081EA0301B4EB5C04EE
:10064000C2BFD4EB0C0541EA045170BD41F48011E6
:100650004FF0000E013C00F3AB8014F1360FDEBF0B
:10066000002001F0004170BDC4F10004203C35DAE7
:100670000C341BDC04F11404C4F1200500FA05F36A
:1006800020FA04F001FA05F240EA020001F000420B
:1006900021F0004110EBD37021FA04F642EB060181
:1006A0005EEA430E08BF20EAD37070BDC4F10C04AB
:1006B000C4F1200500FA04F320FA05F001FA04F26F
:1006C00040EA020001F0004110EBD37041F100015B
:1006D0005EEA430E08BF20EAD37070BDC4F1200566
:1006E00000FA05F24EEA020E20FA04F301FA05F2CE
:1006F00043EA020321FA04F001F0004121FA04F276
:1007000020EA020000EBD3705EEA430E08BF20EA45
:10071000D37070BD94F0000F0FD101F0004640007F
:1007200041EB010111F4801F08BF013CF7D041EA01
:10073000060195F0000F18BF704703F00046520005
:1007400043EB030313F4801F08BF013DF7D043EAD6
:100750000603704794EA0C0F0CEA135518BF95EA8C
:100760000C0F0CD050EA410618BF52EA4306D1D113
:1007700081EA030101F000414FF0000070BD50EA32
:10078000410606BF1046194652EA430619D094EABC
:100790000C0F02D150EA013613D195EA0C0F05D1A6
:1007A00052EA03361CBF104619460AD181EA0301FA
:1007B00001F0004141F0FE4141F470014FF00000B2
:1007C00070BD41F0FE4141F4780170BD70B54FF04D
:1007D000FF0C4CF4E06C1CEA11541DBF1CEA1355CD
:1007E00094EA0C0F95EA0C0F00F0A7F8A4EB0504AF
:1007F00081EA030E52EA03354FEA013100F08880A6
:100800004FEA03334FF0805545EA131343EA12636E
:100810004FEA022245EA111545EA10654FEA002623
:100820000EF000419D4208BF964244F1FD0404F5DC
:10083000407402D25B084FEA3202B61A65EB030538
:100840005B084FEA32024FF480104FF4002CB6EBF5
:10085000020E75EB030E22BFB61A754640EA0C0075
:100860005B084FEA3202B6EB020E75EB030E22BFB5
:10087000B61A754640EA5C005B084FEA3202B6EBF6
:10088000020E75EB030E22BFB61A754640EA9C00B5
:100890005B084FEA3202B6EB020E75EB030E22BF85
:1008A000B61A754640EADC0055EA060E18D04FEA43
:1008B000051545EA16754FEA06164FEAC30343EAE3
:1008C00052734FEAC2025FEA1C1CC0D111F4801FB0
:1008D0000BD141EA00014FF000004FF0004CB6E7A9
:1008E00011F4801F04BF01430020B4F1FD0C88BF48
:1008F000BCF5E06F3FF6AFAEB5EB030C04BFB6EB53
:10090000020C5FEA500C50F1000041EB045170BD45
:100910000EF0004E4EEA113114EB5C04C2BFD4EB72
:100920000C0541EA045170BD41F480114FF0000EF6
:10093000013C90E645EA060E8DE60CEA135594EA72
:100940000C0F08BF95EA0C0F3FF43BAF94EA0C0F75
:100950000AD150EA01347FF434AF95EA0C0F7FF4EA
:1009600025AF104619462CE795EA0C0F06D152EA3E
:1009700003353FF4FDAE1046194622E750EA410622
:1009800018BF52EA43067FF4C5AE50EA41047FF433
:100990000DAF52EA43057FF4EBAE12E74FEA410296
:1009A00012F5001215D211D56FF47873B3EB6252C1
:1009B00012D94FEAC12343F0004343EA505311F0E8
:1009C000004F23FA02F018BF404270474FF000007A
:1009D000704750EA013005D111F0004008BF6FF0B8
:1009E000004070474FF00000704700BF4FEA4102DF
:1009F000B2F1E04324BFB3F5001CDCF1FE5C0DD97D
:100A000001F0004C4FEAC0024CEA5070B2F1004FC6
:100A100040EB830008BF20F00100704711F0804FC9
:100A200021D113F13872BCBF01F00040704741F48E
:100A300080114FEA5252C2F11802C2F1200C10FA92
:100A40000CF320FA02F018BF40F001004FEAC12376
:100A50004FEAD32303FA0CFC40EA0C0023FA02F31A
:100A60004FEA4303CCE77FEA625307D150EA0133F0
:100A70001EBF4FF0FE4040F44000704701F00040C0
:100A800040F0FE4040F40000704700BF80F000409E
:100A900002E000BF81F0004142001FBF5FEA410356
:100AA00092EA030F7FEA226C7FEA236C6AD04FEA56
:100AB0001262D2EB1363C1BFD2184140484041409B
:100AC000B8BF5B42192B88BF704710F0004F40F44D
:100AD000000020F07F4018BF404211F0004F41F469
:100AE000000121F07F4118BF494292EA030F3FD035
:100AF000A2F1010241FA03FC10EB0C00C3F1200348
:100B000001FA03F100F0004302D5494260EB4000D6
:100B1000B0F5000F13D3B0F1807F06D340084FEA41
:100B2000310102F10102FE2A51D2B1F1004F40EB36
:100B3000C25008BF20F0010040EA0300704749009E
:100B400040EB0000013A28BFB0F5000FEDD2B0FA3B
:100B500080FCACF1080CB2EB0C0200FA0CF0AABF5E
:100B600000EBC25052421843BCBFD04018437047FC
:100B700092F0000F81F4000106BF80F40000013202
:100B8000013BB5E74FEA41037FEA226C18BF7FEAD9
:100B9000236C21D092EA030F04D092F0000F08BF1B
:100BA0000846704790EA010F1CBF0020704712F002
:100BB0007F4F04D1400028BF40F00040704712F141
:100BC00000723CBF00F50000704700F0004343F0A6
:100BD000FE4040F4000070477FEA226216BF0846DC
:100BE0007FEA23630146420206BF5FEA412390EA9F
:100BF000010F40F4800070474FF0000304E000BF95
:100C000010F0004348BF40425FEA000C08BF704745
:100C100043F0964301464FF000001CE050EA010209
:100C200008BF70474FF000030AE000BF50EA01021E
:100C300008BF704711F0004302D5404261EB41010B
:100C40005FEA010C02BF84460146002043F0B64330
:100C500008BFA3F18053A3F50003BCFA8CF2083A55
:100C6000A3EBC25310DB01FA02FC634400FA02FC5E
:100C7000C2F12002BCF1004F20FA02F243EB020065
:100C800008BF20F00100704702F1200201FA02FCC7
:100C9000C2F1200250EA4C0021FA02F243EB0200BA
:100CA00008BF20EADC7070474FF0FF0C1CEAD052FE
:100CB0001EBF1CEAD15392EA0C0F93EA0C0F6FD0BF
:100CC0001A4480EA010C400218BF5FEA41211ED09D
:100CD0004FF0006343EA501043EA5111A0FB013189
:100CE0000CF00040B1F5000F3EBF490041EAD3715E
:100CF0005B0040EA010062F17F02FD2A1DD8B3F1DA
:100D0000004F40EBC25008BF20F00100704790F048
:100D1000000F0CF0004C08BF49024CEA502040EA9A
:100D200051207F3AC2BFD2F1FF0340EAC250704760
:100D300040F400004FF00003013A5DDC12F1190F9E
:100D4000DCBF00F000407047C2F10002410021FA10
:100D500002F1C2F1200200FA02FC5FEA310040F128
:100D6000000053EA4C0308BF20EADC70704792F0A1
:100D7000000F00F0004C02BF400010F4000F013AD9
:100D8000F9D040EA0C0093F0000F01F0004C02BFD4
:100D9000490011F4000F013BF9D041EA0C018FE743
:100DA0000CEAD15392EA0C0F18BF93EA0C0F0AD049
:100DB00030F0004C18BF31F0004CD8D180EA01006F
:100DC00000F00040704790F0000F17BF90F0004F08
:100DD000084691F0000F91F0004F14D092EA0C0FEA
:100DE00001D142020FD193EA0C0F03D14B0218BF7D
:100DF000084608D180EA010000F0004040F0FE40C3
:100E000040F40000704740F0FE4040F4400070475E
:100E10004FF0FF0C1CEAD0521EBF1CEAD15392EADD
:100E20000C0F93EA0C0F69D0A2EB030280EA010CCD
:100E300049024FEA402037D04FF0805343EA111166
:100E400043EA10130CF000408B4238BF5B0042F1C4
:100E50007D024FF4000C8B4224BF5B1A40EA0C0069
:100E6000B3EB510F24BFA3EB510340EA5C00B3EB9B
:100E7000910F24BFA3EB910340EA9C00B3EBD10F89
:100E800024BFA3EBD10340EADC001B0118BF5FEADB
:100E90001C1CE0D1FD2A3FF650AF8B4240EBC25004
:100EA00008BF20F0010070470CF0004C4CEA5020C5
:100EB0007F32C2BFD2F1FF0340EAC250704740F414
:100EC00000004FF00003013A37E792F0000F00F006
:100ED000004C02BF400010F4000F013AF9D040EA84
:100EE0000C0093F0000F01F0004C02BF490011F418
:100EF000000F013BF9D041EA0C0195E70CEAD15310
:100F000092EA0C0F08D142027FF47DAF93EA0C0FF6
:100F10007FF470AF084676E793EA0C0F04D14B02DA
:100F20003FF44CAF08466EE730F0004C18BF31F08C
:100F3000004CCAD130F000427FF45CAF31F0004386
:100F40007FF43CAF5FE700BF4FEA4002B2F1FE4FD3
:100F50000FD34FF09E03B3EB12620DD94FEA00237B
:100F600043F0004310F0004F23FA02F018BF404254
:100F700070474FF00000704712F1610F01D142023B
:100F800005D110F0004008BF6FF0004070474FF0EF
:100F90000000704742000ED2B2F1FE4F0BD34FF06B
:100FA0009E03B3EB126209D44FEA002343F00043DF
:100FB00023FA02F070474FF00000704712F1610F02
:100FC00001D1420202D14FF0FF3070474FF00000D4
:100FD000704700BF53B94AB9002908BF00281CBF99
:100FE0004FF0FF314FF0FF3000F06CB9ADF1080C5D
:100FF0006DE904CE00F006F8DDF804E0DDE9022337
:1010000004B070472DE9F047089E0D4604468E4611
:10101000002B40F082808A42174646D9B2FA82F20B
:101020004AB1C2F1200105FA02F320FA01F197401A
:1010300041EA030E94404FEA1748230CBEFBF8FC2C
:10104000B9B208FB1CEE43EA0E430CFB01F09842D8
:101050000AD9FB180CF1FF3580F01681984240F256
:101060001381ACF1020C3B441B1AA4B2B3FBF8F0A1
:1010700008FB103344EA034400FB01F1A14209D903
:101080003C1900F1FF3380F00181A14240F2FE8063
:1010900002383C44641A40EA0C4000211EB1D4409E
:1010A0000023C6E90043BDE8F08702B9FFDEB2FACB
:1010B00082F2002A4FD1CB1B4FEA174E1FFA87F856
:1010C0000121B3FBFEFC250C0EFB1C3345EA034556
:1010D00008FB0CF3AB4207D97D190CF1FF3002D2AB
:1010E000AB4200F2E7808446ED1AA3B2B5FBFEF0F6
:1010F0000EFB105543EA054408FB00F8A04507D94C
:101100003C1900F1FF3302D2A04500F2D780184607
:10111000A4EB080440EA0C40C0E78B4208D9002E3B
:1011200000F0AF800021C6E900050846BDE8F08761
:10113000B3FA83F100294BD1AB4202D3824200F2D1
:10114000B780841A65EB030301209E46002EAAD0C7
:10115000C6E9004EA7E7C2F1200C01FA02F397405E
:1011600020FA0CF04FEA174E21FA0CFC1843BCFB96
:10117000FEF1050C0EFB11CC1FFA87F845EA0C4571
:1011800001FB08F3AB4204FA02F409D97D1901F11D
:10119000FF3C80F08B80AB4240F2888002393D44B6
:1011A000EB1A85B2B3FBFEF00EFB103345EA0345A4
:1011B00000FB08F3AB4207D97D1900F1FF3C71D267
:1011C000AB426FD902383D44EB1A40EA014178E75F
:1011D000C1F1200C8B4022FA0CF71F4320FA0CF4CB
:1011E00005FA01F34FEA174E25FA0CF51C43230CC0
:1011F000B5FBFEF91FFA87F80EFB195543EA0545C2
:1012000009FB08FAAA4502FA01F200FA01F308D92B
:101210007D1909F1FF3047D2AA4545D9A9F1020944
:101220003D44A5EB0A05A4B2B5FBFEF00EFB10553C
:1012300044EA054400FB08F8A04507D93C1900F131
:10124000FF352DD2A0452BD902383C4440EA094055
:10125000A4EB0804A0FB02894C45C6464D4619D3B1
:1012600016D05EB1B3EB0E0264EB050404FA0CFC7D
:10127000CA404CEA0202CC40C6E900240021BDE885
:10128000F087314630460EE7AC46EDE6184601E7FA
:101290004345E6D2B8EB020E69EB07050138E0E7FB
:1012A0002846D3E760468FE78146BAE7614677E78D
:1012B00008464BE7ACF1020C3D4415E702383C44CC
:1012C00026E700BF704700BF0000000000000000DC
:1012D000000000000000000000000000000000000E
:1012E00000000000000000000000000000000000FE
:1012F00000000000000000000000000000000000EE
:1013000090F800F06DE9024520F007016FF0000C45
:1013100010F0070491F820F040F049804FF00004ED
:101320006FF00700D1E9002391F840F000F10800C8
:1013300082FA4CF2A4FA8CF283FA4CF3A2FA8CF300
:101340004BBBD1E9022382FA4CF200F10800A4FA67
:101350008CF283FA4CF3A2FA8CF3E3B9D1E90423BB
:1013600082FA4CF200F10800A4FA8CF283FA4CF3F2
:10137000A2FA8CF37BB9D1E9062301F1200182FAAC
:101380004CF200F10800A4FA8CF283FA4CF3A2FAB2
:101390008CF3002BC6D0002A04BF04301A4612BAC0
:1013A000B2FA82F2FDE8024500EBD2007047D1E9C3
:1013B000002304F00305C4F100004FEAC50514F052
:1013C000040F91F840F00CFA05F562EA05021CBF23
:1013D00063EA050362464FF00004A9E7000000003D
:1013E00001F0FF01102A2BDB10F0070F08D010F8D6
:1013F000013B013A8B422DD010F0070F42B3F6D1DA
:10140000F0B441EA012141EA014122F007047FF0F2
:1014100000070023F0E80256083C85EA010586EA49
:10142000010685FA47F5A3FA87F586FA47F6A5FA85
:1014300087F68EB9EED1F0BC01F0FF0102F0070291
:1014400032B110F8013B013A83EA010313B1F8D13C
:101450000020704701387047002D06BF354603381D
:10146000073815F0010F07D1013015F4807F02BF56
:10147000013015F4C03F0130F0BC0138704700BFA7
:10148000844641EA000313F003036DD1403A41D38F
:1014900051F8043B40F8043B51F8043B40F8043B4E
:1014A00051F8043B40F8043B51F8043B40F8043B3E
:1014B00051F8043B40F8043B51F8043B40F8043B2E
:1014C00051F8043B40F8043B51F8043B40F8043B1E
:1014D00051F8043B40F8043B51F8043B40F8043B0E
:1014E00051F8043B40F8043B51F8043B40F8043BFE
:1014F00051F8043B40F8043B51F8043B40F8043BEE
:1015000051F8043B40F8043B51F8043B40F8043BDD
:10151000403ABDD2303211D351F8043B40F8043B7D
:1015200051F8043B40F8043B51F8043B40F8043BBD
:1015300051F8043B40F8043B103AEDD20C3205D38D
:1015400051F8043B40F8043B043AF9D2043208D085
:10155000D2071CBF11F8013B00F8013B01D30B88F7
:1015600003806046704700BF082A13D38B078DD0D5
:1015700010F003038AD0C3F10403D21ADB071CBFA7
:1015800011F8013B00F8013B80D331F8023B20F811
:10159000023B7BE7043AD9D3013A11F8013B00F84A
:1015A000013BF9D20B7803704B7843708B788370D2
:1015B000604670474FF0FF3C06E000BF4FF0010C63
:1015C00002E000BF4FF0010C4DF804CD4FEA410C92
:1015D0007FEA6C5C4FEA430C18BF7FEA6C5C1BD05F
:1015E00001B050EA410C0CBF52EA430C91EA030FE0
:1015F00002BF90EA020F0020704710F1000F91EA3D
:10160000030F58BF994208BF90422CBFD8176FEA0A
:10161000E37040F0010070474FEA410C7FEA6C5CD8
:1016200002D150EA013C07D14FEA430C7FEA6C5CDF
:10163000D6D152EA033CD3D05DF8040B704700BF0B
:101640008446104662468C461946634600E000BF59
:1016500001B5FFF7B7FF002848BF10F1000F01BD2B
:101660004DF808EDFFF7F4FF0CBF012000205DF8F6
:1016700008FB00BF4DF808EDFFF7EAFF34BF01207B
:1016800000205DF808FB00BF4DF808EDFFF7E0FF14
:1016900094BF012000205DF808FB00BF4DF808ED65
:1016A000FFF7CEFF94BF012000205DF808FB00BFCC
:1016B0004DF808EDFFF7C4FF34BF012000205DF8AE
:1016C00008FB00BF4FEA410C7FEA6C5C02D150EA94
:1016D000013C0AD14FEA430C7FEA6C5C02D152EA2A
:1016E000033C02D14FF0000070474FF001007047FB
:1016F00070B588B00024039404940594069407946C
:1017000000941D4B1A6B42F004021A631A6B02F02C
:1017100004020092009A01941A6B42F080021A634C
:101720001A6B02F080020192019A02941A6B42F045
:1017300001021A631B6B03F001030293029B0F4E1D
:1017400001224FF40051304600F054FC4FF4005396
:101750000393012504950594069403A9304600F0EF
:101760005FFB4FF4004303930494059503A90448D9
:1017700000F056FB08B070BD00380240000802407F
:101780000000024008B50268034B9A4200D008BD31
:1017900000F06EFAFBE700BF0000014072B6FEE702
:1017A00000B595B03022002108A802F0F3FB002319
:1017B0000393049305930693079301932C4A116CAA
:1017C00041F080511164126C02F080520192019A32
:1017D0000293284A116841F480411160126802F4B2
:1017E00080420292029A012203920493052103A8E7
:1017F00000F06EFE002832D1012308934FF48033AD
:10180000099302220E924FF480030F930423109346
:10181000A82111911292139308A800F0F1FB00BBCC
:101820000F23039302230493002305934FF4A05343
:1018300006934FF480530793052103A800F048FE58
:1018400088B90223089300230B930E9308A800F095
:10185000D7FB50B900F0D0FD15B05DF804FBFFF7E1
:101860009DFFFFF79BFFFFF799FFFFF797FF00BF73
:10187000003802400070004008B500F0DFF9FFF7C3
:101880008FFFFFF735FF00F06DF9114800F026F8E3
:10189000104802F031FC02F0DDF802F0E7F84FF4F6
:1018A000FA7000F0F7F90C4C00224FF4005120467A
:1018B00000F0A0FB4FF4FA7000F0ECF901224FF4B5
:1018C0000051204600F096FB02F0B2F9E7E700BFB6
:1018D000440B002050A300080008024008B5054B47
:1018E0001860054B1868002302221946806802F030
:1018F0000BFC08BDF00900202400002010B50138C1
:1019000001280AD814464FF0FF3392B20748006806
:1019100001F083FB40B9204610BD02F011FB092302
:1019200003604FF0FF30F7E70520F5E7F0090020EE
:1019300008B548B94FF0FF3301220848006801F0AC
:10194000D8FB40B9012008BD02F0FAFA0923036070
:101950004FF0FF30F7E70520F5E700BFF009002062
:1019600082B0002100910B4B5A6C42F480425A64C1
:101970005A6C02F480420092009A01911A6C42F073
:1019800080521A641B6C03F080530193019B02B0D8
:10199000704700BF0038024010B588B001460022F1
:1019A000192000F09DF9192000F0CEF900240194CF
:1019B000144B5A6C42F001025A645B6C03F0010351
:1019C0000193019B02A903A800F058FE00F046FE17
:1019D00043000D48A0FB03239B0C013B0B480C4A22
:1019E000026040F2E732C26043600461846001F04B
:1019F00077F810B1012008B010BD044800F006FFD0
:101A0000F9E700BF0038024083DE1B43F4090020E1
:101A10000000014008B500F051FEFEE7FEE7FEE7DA
:101A2000FEE7FEE7704770477047704708B5024809
:101A300000F035FF08BD00BFF4090020014B1B6812
:101A400058607047440B002010B5244B1B681A687F
:101A500012F0200F07D05C68E4B2214B1B7803F032
:101A60000503042B03D01D4801F040FC10BD082CD9
:101A700012D01C4B1B78FF2B24D01B4AD4540133AB
:101A80000021D154174A13700D2C22D1144A137817
:101A900043F002031370E6E7124B1B78002BE2D0F1
:101AA0000820FFF7CBFF2020FFF7C8FF0820FFF733
:101AB000C5FF0C4A1378013BDBB213700A4A0021C0
:101AC000D154D0E7013B084AD4540820FFF7B6FFB1
:101AD000DAE72046FFF7B2FFC5E700BF440B00205E
:101AE0000C000020400B0020400A0020012070471D
:101AF00008B502F025FA162303604FF0FF3008BD49
:101B000008B54FF0FF31FFF7F3FFFEE708B50346D6
:101B10000B4A126842B10A4A106803446A4693426B
:101B200006D8074A136008BD054A06491160F2E766
:101B300002F006FA0C2303604FF0FF30F3E700BF1A
:101B40003C0A0020580C00204FF0FF3070474FF443
:101B500000534B6000207047012070470020704701
:101B60007047000008B50D480D4B03604FF4E1339A
:101B7000436000238360C36003610C224261836180
:101B8000C36101F01BFA30B9044B1A68D36843F003
:101B90002003D36008BDFFF701FEF5E7440B0020EA
:101BA0000010014010B588B00023039304930593FF
:101BB00006930793026803F1804303F588339A4242
:101BC00001D008B010BD0024019403F594335A6C81
:101BD00042F010025A645A6C02F010020192019A0B
:101BE00002941A6B42F001021A631B6B03F00103AB
:101BF0000293029B4FF4C063039302230493059462
:101C0000032306930723079303A9064800F008F966
:101C100022460421252000F063F8252000F094F8E6
:101C2000CFE700BF000002400023024A1370024ABF
:101C300013707047400B0020400A002008B50B4B82
:101C40001A6842F400721A601A6842F480621A60DC
:101C50001A6842F480721A60032000F02FF80F20F7
:101C6000FFF79AFEFFF77CFE002008BD003C024013
:101C7000034A1168034B1B780B441360704700BF85
:101C8000880B002004000020014B1868704700BF3B
:101C9000880B002038B50446FFF7F6FF0546B4F17F
:101CA000FF3F02D0044B1B781C44FFF7EDFF401BA5
:101CB000A042FAD338BD00BF04000020074AD36811
:101CC00023F4E0631B041B0C000200F4E0600343F8
:101CD00043F0BF6343F40033D360704700ED00E08E
:101CE00030B4174BDB68C3F30223C3F10704042CA1
:101CF00028BF04241D1D062D18D9033B4FF0FF35C6
:101D000005FA04F421EA0401994005FA03F322EAF2
:101D10000303194300280BDB0901C9B200F160403D
:101D200000F5614080F8001330BC70470023E5E700
:101D300000F00F000901C9B2024B1954F4E700BFCB
:101D400000ED00E014ED00E0002807DB00F01F02CA
:101D5000400901239340024A42F82030704700BFF7
:101D600000E100E070B50446866DFFF78DFF94F842
:101D70003530DBB2022B06D080236365002384F864
:101D80003430012070BD05462268136823F0160325
:101D900013602268536923F080035361236CE3B11D
:101DA0002268136823F0080313602268136823F085
:101DB0000103136023681B6813F0010F11D0FFF7B4
:101DC00063FF431B052BF5D920236365032084F8AB
:101DD0003500002384F83430D4E7A36C002BDFD126
:101DE000E3E7E26D3F239340B360012384F835308D
:101DF000002084F83400C5E790F83530DBB2022BC0
:101E000003D08023436501207047052380F83530D7
:101E10000268136823F0010313600020704700007C
:101E200000230F2B00F2DD80F0B482B05DE0866805
:101E30005F000324BC4026EA0406CC68BC4034435F
:101E40008460466826EA02064C68C4F300129A4091
:101E50003243426057E0DC08083450F8247003F045
:101E6000070296000F22B24027EA02070A69B24031
:101E70003A4340F824205AE0072200E00022B24012
:101E80003A430234574E46F82420574A9468EA43AE
:101E900024EA05064F6817F4801F01D045EA0406BE
:101EA000514CA660E46802EA04064F6817F4001F6C
:101EB00001D045EA04064C4CE660646802EA040678
:101EC0004F6817F4003F01D045EA0406464C6660AF
:101ED000246822404E6816F4803F01D045EA04028F
:101EE000414C226001330F2B78D801229A400C68B4
:101EF00004EA020532EA0404F4D14C6804F0030455
:101F0000013C012C93D94A6802F00302032A09D04C
:101F1000C4685E000322B24024EA02048A68B24028
:101F20002243C2604A6802F00302022A93D0046886
:101F30005E000322B24024EA02044A6802F003026F
:101F4000B240224302604A6812F4403FCAD00022E5
:101F50000192264A546C44F480445464526C02F456
:101F600080420192019A9C08A61C1E4A52F82670D3
:101F700003F0030296000F22B24027EA02071C4A30
:101F800090423FF47BAF02F5806290421AD002F596
:101F90008062904218D002F58062904216D002F51D
:101FA0008062904214D002F58062904212D002F515
:101FB0008062904210D002F5806290423FF45CAFA4
:101FC00008225CE701225AE7022258E7032256E77B
:101FD000042254E7052252E7062250E702B0F0BC83
:101FE0007047704700380140003C01400038024013
:101FF000000002400AB181617047090481617047A5
:10200000002800F0DF8170B582B00446036813F049
:10201000010F3BD0A64B9B6803F00C03042B2CD084
:10202000A34B9B6803F00C03082B21D06368B3F526
:10203000803F4FD0B3F5A02F52D09D4B1A6822F4A9
:1020400080321A601A6822F480221A606368002BBA
:1020500050D0FFF719FE0546954B1B6813F4003F5F
:1020600014D1FFF711FE401B6428F5D90320B0E11D
:102070008F4B5B6813F4800FD8D08D4B1B6813F423
:10208000003F03D06368002B00F09E81236813F0AB
:10209000020F54D0864B9B6813F00C0F3ED0844B3C
:1020A0009B6803F00C03082B33D0E368002B67D048
:1020B000804B01221A60FFF7E7FD05467C4B1B6849
:1020C00013F0020F53D1FFF7DFFD401B0228F5D9B3
:1020D00003207EE1764A136843F480331360B5E74A
:1020E000734B1A6842F480221A601A6842F48032F4
:1020F0001A60ABE7FFF7C8FD05466D4B1B6813F48C
:10210000003FC3D0FFF7C0FD401B6428F5D9032072
:102110005FE1674B5B6813F4800FC6D1644B1B68AB
:1021200013F0020F03D0E368012B40F04F81604AA7
:10213000136823F0F803216943EAC103136023689D
:1021400013F0080F40D0636963B35B4B01221A6040
:10215000FFF79AFD0546564B5B6F13F0020F33D124
:10216000FFF792FD401B0228F5D9032031E1504AC8
:10217000136823F0F803216943EAC1031360DEE723
:102180004C4B00221A60FFF77FFD0546484B1B6849
:1021900013F0020FD3D0FFF777FD401B0228F5D9CB
:1021A000032016E1444B00221A60FFF76DFD05463F
:1021B0003F4B5B6F13F0020F06D0FFF765FD401B2E
:1021C0000228F5D9032004E1236813F0040F78D026
:1021D000374B1B6C13F0805F0DD100230193344B00
:1021E0001A6C42F080521A641B6C03F08053019306
:1021F000019B012500E00025304B1B6813F4807F14
:1022000021D0A368012B32D0052B36D0284B1A6F72
:1022100022F001021A671A6F22F004021A67A368FB
:10222000002B34D0FFF730FD0646214B1B6F13F017
:10223000020F45D1FFF728FD801B41F288339842F9
:10224000F3D90320C5E01D4A136843F4807313607B
:10225000FFF71AFD0646194B1B6813F4807FD0D197
:10226000FFF712FD801B0228F5D90320B1E0104AC8
:10227000136F43F001031367D1E70D4B1A6F42F060
:1022800004021A671A6F42F001021A67C7E7FFF7E4
:10229000FBFC0646064B1B6F13F0020F10D0FFF736
:1022A000F3FC801B41F288339842F3D9032090E07D
:1022B0000038024000004742800E47420070004054
:1022C000EDB9A369002B00F08380494A926802F0BF
:1022D0000C02082A51D0022B17D0464B00221A605C
:1022E000FFF7D2FC0446424B1B6813F0007F42D03C
:1022F000FFF7CAFC001B0228F5D9032069E03C4A1D
:10230000136C23F080531364DBE73A4B00221A600E
:10231000FFF7BAFC0546364B1B6813F0007F06D06A
:10232000FFF7B2FC401B0228F5D9032051E0E36916
:10233000226A1343626A43EA8213A26A5208013A8C
:1023400043EA0243E26A43EA0263294A5360294BA3
:1023500001221A60FFF798FC0446254B1B6813F016
:10236000007F06D1FFF790FC001B0228F5D903205F
:102370002FE000202DE000202BE0012B2BD01C4B68
:102380005B6803F48001E269914226D103F03F02C9
:10239000216A8A4223D1616A47F6C0721A40B2EBC1
:1023A000811F1ED103F44031A26A5208013AB1EBF9
:1023B000024F18D103F07063E26AB3EB026F14D1DD
:1023C000002006E001207047012002E0012000E02B
:1023D000002002B070BD0120FBE70120F9E70120D9
:1023E000F7E70120F5E70120F3E70120F1E700BF5F
:1023F0000038024060004742014B01221A607047DA
:102400004C004742F8B52F4B9B6803F00C03042B9C
:1024100053D0082B53D12B4B5A6802F03F025B6814
:1024200013F4800F28D0274B5B68C3F3881358013F
:102430000021C01A61F100018E0146EA9066870111
:102440003C1A66EB0105E90041EA5471E000C0184E
:1024500041F100014B0243EAD053440220461946A1
:102460000023FEF7B7FD174B5B68C3F3014301334D
:102470005B00B0FBF3F023E0124B5B68C3F38813FF
:102480005C010025E41A65F10005AE0146EA946698
:10249000A701381B66EB0501CC0044EA5074C50067
:1024A000E81844F100018B0243EA9053840220466D
:1024B00019460023FEF78EFDD5E7034800E00348E8
:1024C000F8BD00BF0038024000127A000024F4007A
:1024D000002800F09B8070B50D4604464F4B1B68EA
:1024E00003F007038B4208D2CBB24C4A1370136837
:1024F00003F007038B4240F08B80236813F0020F38
:1025000017D013F0040F04D0454A936843F4E05306
:102510009360236813F0080F04D0414A936843F492
:10252000604393603E4A936823F0F003A1680B4335
:102530009360236813F0010F32D06368012B21D020
:102540009A1E012A25D9364A126812F0020F61D06C
:1025500033498A6822F0030213438B60FFF794FB30
:1025600006462F4B9B6803F00C036268B3EB820FA7
:1025700016D0FFF789FB801B41F288339842F0D9CF
:10258000032042E0264A126812F4003FE0D1012005
:102590003BE0234A126812F0007FD9D1012034E0D9
:1025A0001E4B1B6803F00703AB4207D9EAB21B4B73
:1025B0001A701B6803F00703AB422DD1236813F098
:1025C000040F06D0164A936823F4E053E1680B43E6
:1025D0009360236813F0080F07D0114A936823F41F
:1025E0006043216943EAC1039360FFF70BFF0C4B83
:1025F0009B68C3F303130B4AD35CD8400A4B1860A3
:102600000A4B1868FFF7C8F9002070BD0120704719
:102610000120FAE70120F8E70120F6E7003C02403C
:10262000003802408CA300080000002008000020B1
:10263000014B1868704700BF0000002008B5FFF785
:10264000F7FF044B9B68C3F38223034AD35CD84053
:1026500008BD00BF003802409CA3000808B5FFF782
:10266000E7FF044B9B68C3F34233034AD35CD84073
:1026700008BD00BF003802409CA300080F23036080
:102680000B4B9A6802F0030242609A6802F0F00273
:1026900082609A6802F4E052C2609B68DB0803F42F
:1026A000E0530361034B1B6803F007030B607047A3
:1026B00000380240003C02407047000008B5064B5D
:1026C000DB6813F0800F00D108BDFFF7F5FF034B67
:1026D00080221A70F8E700BF003802400E3802402E
:1026E00030B4036A23F001030362056A4268846917
:1026F00024F073040B681C4325F002058B682B4300
:10270000104DA84203D005F58065A84205D123F0FD
:102710000803CD682B4323F004030A4DA84203D0DD
:1027200005F58065A84205D122F440724D69154334
:102730008A692A43426084614A684263036230BC0A
:10274000704700BF0000014030B4036A23F4807377
:102750000362036A4268C46924F073040D682C4361
:1027600023F400738D6843EA0523124DA84203D079
:1027700005F58065A84206D123F40063CD6843EADD
:10278000052323F480630B4DA84203D005F5806533
:10279000A84207D122F440524D6942EA05128D69E0
:1027A00042EA05124260C4614A68C263036230BCF7
:1027B000704700BF0000014030B4036A23F4805327
:1027C0000362036A4468C26922F4E6420D6842EA81
:1027D000052223F400538D6843EA0533094DA842CE
:1027E00003D005F58065A84204D124F480444D69E6
:1027F00044EA85144460C2614A680264036230BCE2
:10280000704700BF000001407047000090F83D3065
:10281000DBB2012B37D1022380F83D300268D36848
:1028200043F00103D3600368194A934220D0B3F107
:10283000804F1DD0A2F57C42934219D002F58062F0
:10284000934215D002F58062934211D002F578428E
:1028500093420DD002F57052934209D0A2F5943202
:10286000934205D01A6842F001021A6000207047B6
:102870009A6802F00702062A07D01A6842F001029D
:102880001A6000207047012070470020704700BF89
:10289000000001407047704770477047704710B59F
:1028A000044603681A6912F0020F11D0DA6812F0B8
:1028B000020F0DD06FF002021A6101230377036843
:1028C0009B6913F0030F70D0FFF7E6FF0023237717
:1028D00023681A6912F0040F12D0DA6812F0040F9C
:1028E0000ED06FF004021A610223237723689B69DC
:1028F00013F4407F5FD02046FFF7CEFF00232377FD
:1029000023681A6912F0080F12D0DA6812F0080F63
:102910000ED06FF008021A61042323772368DB6965
:1029200013F0030F4ED02046FFF7B6FF00232377A6
:1029300023681A6912F0100F12D0DA6812F0100F23
:102940000ED06FF010021A61082323772368DB6929
:1029500013F4407F3DD02046FFF79EFF00232377EE
:1029600023681A6912F0010F03D0DA6812F0010F20
:1029700036D123681A6912F0800F03D0DA6812F09A
:10298000800F34D123681A6912F0400F03D0DA683F
:1029900012F0400F32D123681A6912F0200F03D0D1
:1029A000DA6812F0200F30D110BDFFF774FF204617
:1029B000FFF773FF8AE72046FFF76DFF2046FFF71A
:1029C0006CFF9BE72046FFF766FF2046FFF765FF99
:1029D000ACE72046FFF75FFF2046FFF75EFFBDE74D
:1029E0006FF001021A612046FEF7CCFEC1E76FF0DE
:1029F00080021A61204600F0B2F9C3E76FF040028E
:102A00001A612046FFF74AFFC5E76FF020021A61FE
:102A1000204600F0A3F9C7E70368304A904212D07D
:102A2000B0F1804F0FD0A2F57C4290420BD002F55E
:102A30008062904207D002F58062904203D002F596
:102A40007842904203D123F070034A681343234A2B
:102A500090422AD0B0F1804F27D0A2F57C4290421C
:102A600023D002F5806290421FD002F5806290422E
:102A70001BD002F57842904217D002F57052904276
:102A800013D002F5806290420FD002F5806290422E
:102A90000BD0A2F59832904207D002F580629042A6
:102AA00003D002F58062904203D123F44073CA68D8
:102AB000134323F080034A69134303608B68C362A6
:102AC0000B688362054B984203D003F580639842FC
:102AD00001D10B690363012343617047000001408A
:102AE00040B310B5044690F83D30F3B1022384F8AA
:102AF0003D30214651F8040BFFF78EFF012384F887
:102B0000463084F83E3084F83F3084F8403084F812
:102B1000413084F8423084F8433084F8443084F8FB
:102B2000453084F83D30002010BD80F83C30FFF780
:102B30006BFEDBE70120704740B310B5044690F808
:102B40003D30F3B1022384F83D30214651F8040BA7
:102B5000FFF762FF012384F8463084F83E3084F8A2
:102B60003F3084F8403084F8413084F8423084F8B3
:102B7000433084F8443084F8453084F83D300020F8
:102B800010BD80F83C30FFF785FEDBE70120704781
:102B900030B4036A23F010030362036A4468826955
:102BA00022F4E6420D6842EA052223F020038D68F4
:102BB00043EA0513114DA84203D005F58065A842EC
:102BC00006D123F08003CD6843EA051323F04003C8
:102BD0000A4DA84203D005F58065A84207D124F428
:102BE00040644D6944EA85048D6944EA8504446083
:102BF00082614A688263036230BC70470000014012
:102C000090F83C30012B28D010B50446012380F801
:102C10003C300C2A1CD8DFE802F0071B1B1B0C1BE6
:102C20001B1B111B1B1B16000068FFF759FD002022
:102C30000FE00068FFF7ACFF00200AE00068FFF734
:102C400083FD002005E00068FFF7B6FD002000E0EE
:102C50000120002384F83C3010BD0220704710B4DE
:102C600001F01F01012303FA01F4036A23EA0403BC
:102C70000362036A02FA01F10B43036210BC70475E
:102C800038B505460C460C2963D8DFE801F0076229
:102C900062622E626262346262623A000268D368E3
:102CA00023F00203D360002221462868FFF7D7FFF4
:102CB0002B68294A93422AD002F58062934226D09B
:102CC0002B68196A41F21112114208D1196A40F2B7
:102CD0004442114203D11A6822F001021A602CBB4F
:102CE000012385F83E30002034E00268D36823F0E9
:102CF0000403D360D7E70268D36823F00803D360E6
:102D0000D1E70268D36823F01003D360CBE7196AD8
:102D100041F211121142D3D1196A40F244421142D8
:102D2000CED15A6C22F400425A64C9E7042C06D072
:102D3000082C09D0012385F8413000200AE0012346
:102D400085F83F30002005E0012385F84030002061
:102D500000E0012038BD00BF00000140704770470F
:102D6000026802F10C0353E8003F23F490730C3225
:102D700042E800310029F3D1026802F1140353E85C
:102D8000003F23F00103143242E800310029F3D15F
:102D9000036B012B05D0202380F83E300023036312
:102DA0007047026802F10C0353E8003F23F0100360
:102DB0000C3242E800310029F3D1ECE790F83D30C5
:102DC000DBB2212B01D0022070478368B3F5805F0E
:102DD00017D0036A5A1C02621A7803685A60C38CBF
:102DE0009BB2013B9BB2C3844BB90268D36823F00A
:102DF0008003D3600268D36843F04003D3600020AF
:102E000070470369002BE4D1036A1B880268C3F38F
:102E100008035360036A02330362E0E770B50446B7
:102E20000268136923F44053C1680B43136183683C
:102E30000269134342691343C2691A430168CB68AC
:102E400023F4164323F00C031343CB600268536949
:102E500023F4407381690B4353610368344A9342FE
:102E600006D002F58062934202D0FFF7E7FB01E053
:102E7000FFF7F4FBE369B3F5004F2AD000260518ED
:102E800046EB06012D1846EB0101CB0043EA5573D2
:102E9000EA001546194663689A009B0F281846EB0E
:102EA0000101FEF797F8234DA5FB00325109642379
:102EB00003FB11031B013233A5FB03235B0903F062
:102EC000F00202EB011203F00F03216813448B6040
:102ED00070BD0026051846EB06012D1846EB0101D2
:102EE000CB0043EA5573EA0015461946626833463B
:102EF000921846EB0303281846EB0101FEF76AF827
:102F00000C4DA5FB00325109642303FB1103DB00C8
:102F10003233A5FB03235B095A0002F4F87202EB7B
:102F2000011203F00703216813448B60D0E700BF50
:102F3000001001401F85EB512DE9F84305460F466F
:102F400016469946DDF820802C68246837EA040389
:102F50000CBF01240024B4422DD1B8F1FF3FF3D0BF
:102F6000B8F1000F05D0FEF78FFEA0EB0900404539
:102F7000EAD92A6802F10C0353E8003F23F4D07326
:102F80000C3242E800310029F3D12A6802F114031F
:102F900053E8003F23F00103143242E800310029D6
:102FA000F3D1202385F83D3085F83E30002385F8A5
:102FB0003C30032000E00020BDE8F88358B310B592
:102FC000044690F83D300BB3242384F83D3022684A
:102FD000D36823F40053D3602046FFF71FFF226815
:102FE000136923F4904313612268536923F02A0381
:102FF00053612268D36843F40053D36000202064F7
:10300000202384F83D3084F83E3010BD80F83C30F9
:10301000FEF7C8FDD8E7012070472DE9F04182B0E6
:103020001E4690F83D30DBB2202B54D104460D46AD
:103030009046002953D0002A53D090F83C30012B01
:1030400051D0012380F83C3000230364212380F811
:103050003D30FEF719FE0746A4F82480A4F8268028
:10306000A368B3F5805F05D04FF00008002384F813
:103070003C3012E0236913B14FF00008F6E7A84690
:103080000025F3E738F8023B2268C3F308035360D6
:10309000E28C92B2013A92B2E284E38C9BB273B1B9
:1030A00000963B46002280212046FFF745FFE0B90D
:1030B000002DE7D015F8012B23685A60E8E7009649
:1030C0003B46002240212046FFF736FF78B92023F7
:1030D00084F83D3000E0022002B0BDE8F08101201C
:1030E000FAE70120F8E70220F6E70320F4E70320DF
:1030F000F2E72DE9F04182B01E4690F83E30DBB297
:10310000202B5CD104460D46904600295BD0002A56
:103110005BD090F83C30012B59D0012380F83C3033
:1031200000230364222280F83E200363FEF7ACFDF7
:103130000746A4F82C80A4F82E80A368B3F5805F1E
:1031400005D04FF00008002384F83C3017E02369D5
:1031500013B14FF00008F6E7A8460025F3E723680F
:103160005B68C3F3080328F8023B03E023685B684D
:103170002B700135E28D92B2013A92B2E285E38D75
:103180009BB2BBB100963B46002220212046FFF7B0
:10319000D3FEF0B9002DE2D0A368B3F5805FE5D08F
:1031A00013B92369002BE1D023685B6803F07F0328
:1031B0002B70DEE7202384F83E30002000E0022060
:1031C00002B0BDE8F0810120FAE70120F8E7022013
:1031D000F6E70320F4E7704708B50168CA6822F0F3
:1031E0004002CA60202280F83D20FFF7F4FF002053
:1031F00008BD7047704708B5806B0023C385C38442
:10320000FFF7F8FF08BD704790F83E30DBB2222B85
:1032100067D18368B3F5805F4DD0826AB3F5805F74
:1032200004D0002B54D10369002B51D103685B6893
:103230001370836A01338362C38D9BB2013B9BB2DF
:10324000C385002B4FD100B583B00268D36823F04B
:103250002003D3600268D36823F48073D3600268CC
:10326000536923F001035361202380F83E30036B40
:10327000012B33D100230363026802F10C0353E8EE
:10328000003F23F010030C3242E800310029F3D153
:1032900003681A6812F0100F06D0002201921A6813
:1032A00001925B680193019B818DFFF7ACFF0020C9
:1032B00003B05DF804FB0269002AAED1826A03689C
:1032C0005B68C3F308031380836A02338362B3E746
:1032D00003685B6803F07F031370AAE7FFF789FFB9
:1032E000E5E70220704700207047000030B583B04A
:1032F000044602681368D068516913F00F0505D1C0
:1033000013F0200F02D010F0200F19D12DB111F0C1
:10331000010119D110F4907F16D1216B01297DD0C4
:1033200013F0800F03D010F0800F40F0158113F0E0
:10333000400F03D010F0400F40F0128103B030BDB9
:103340002046FFF761FFF9E713F0010F06D010F4F4
:10335000807F03D0226C42F00102226413F0040F3C
:1033600004D019B1226C42F00202226413F0020F61
:1033700004D019B1226C42F00402226413F0080F49
:1033800007D010F0200F00D119B1226C42F00802D2
:103390002264226C002AD1D013F0200F02D010F04A
:1033A000200F29D123685B6903F04003226C12F0DF
:1033B000080F00D163B32046FFF7D2FC23685B6996
:1033C00013F0400F20D0226802F1140353E8003FAD
:1033D00023F04003143242E800310029F3D1A36BFB
:1033E00073B1614A1A65A06BFEF706FD0028A5D0EF
:1033F000A06B036D9847A1E72046FFF705FFD1E7D3
:103400002046FFF7F7FE99E72046FFF7F3FE95E722
:103410002046FFF7EFFE002323648FE713F0100F21
:103420003FF47EAF10F0100F3FF47AAF002301930A
:103430001368019353680193019B536913F0400F84
:1034400050D0A26B13685B689BB2002B3FF476AF41
:10345000A18D99427FF672AFE385D369B3F5807F82
:1034600037D0226802F10C0353E8003F23F4807345
:103470000C3242E800310029F3D1226802F1140332
:1034800053E8003F23F00103143242E800310029E1
:10349000F3D1226802F1140353E8003F23F0400304
:1034A000143242E800310029F3D1202384F83E3061
:1034B00000232363226802F10C0353E8003F23F04A
:1034C00010030C3242E800310029F3D1A06BFEF763
:1034D00049FCA18DE38D9BB2C91A89B22046FFF742
:1034E00092FE2BE7A18DE38D9BB2C91A89B2E38DC1
:1034F0009BB2002B3FF422AF00293FF41FAF22689C
:1035000002F10C0353E8003F23F490730C3242E8BD
:1035100000300028F3D1226802F1140353E8003F81
:1035200023F00103143242E800300028F3D12023B5
:1035300084F83E3000232363226802F10C0353E831
:10354000003F23F010030C3242E800300028F3D192
:103550002046FFF758FEF1E62046FFF72FFCEDE688
:103560002046FFF739FEE9E6F7310008012804D0CC
:10357000044A1368013313607047024A1368013B21
:1035800013607047AC0B0020002800F0E8802DE9A4
:10359000F84F0C4617461E46054600282CDB724B9A
:1035A0001A786FF3C3021A706F4B1B7813F0080F71
:1035B00029D06E4B02229A61012D29D0002D39D1DC
:1035C0006B4C2268536A6849496803EB51035363A3
:1035D000002211466748FFF742FB2368DA6842F091
:1035E0000202DA605A6C42F400425A641A6842F0ED
:1035F00001021A60BDE8F88F5B4A137843F00803B4
:1036000013704542D0E7594B4FF400329A61D3E72B
:10361000554B4FF0FF325A611A78022161F30202D2
:103620001A704FF47A725A60534A137843F00103C8
:103630001370C5E7514B1B684FEA13184046FDF75E
:10364000DBFA4F49FDF730FB81463046FDF7D4FAEF
:1036500001464846FDF7DCFBFDF776FCDFF808B1D4
:10366000CBF810004046FCF70DFF3DA3D3E9002343
:10367000FCF782FF0022434BFDF7A8F8FDF7B6F9EF
:10368000FCF722FF804689462046FDF7B5FA8246C0
:1036900001463D48FDF7BCFBFCF716FF06F05AFD5E
:1036A00002460B4640464946FCF766FF0022354B72
:1036B000FDF78CF8FDF772F98046CBF8040006FBA5
:1036C00006F632495046FDF7EFFA3149FDF7A0FB07
:1036D00081463046FDF790FA4946FDF799FBFDF724
:1036E00059FC024600B901222E4607FB05F3E019FA
:1036F000B3FBF0F1834200D201218A4220D3891B1F
:10370000194BD960184BDB681BB9174B4FF0FF32D0
:10371000DA60154BDA6815449D601B69984517D827
:10372000114A53601378032161F3020313700E4BA7
:1037300000225A61104A137843F0010313703FE7E7
:1037400004FB02F2B2FBF7F25242074BDA60D9E710
:10375000054B1A78012161F302021A70E7E77047FE
:103760006F1283C0CAA1E53F940B002000100240F5
:10377000B40B0020000401400C00002000000020D9
:1037800072D9A03C000024407059C443CF0FC93EF9
:103790000000204170B582B0002301930093644B78
:1037A0001B68DA6812F0020F15D06FF002021A617E
:1037B0005A6A01925F4A5168019A02EB51020092E3
:1037C000009A5A635C4A13780133DBB213701378A2
:1037D000DBB2022B01D002B070BD134600221A707A
:1037E000544B1B7803F00703032B00F29F80DFE8A4
:1037F00003F0021472580024504B1C60504B1C60A4
:1038000021464B48FFF73CFA4E4B1A7864F300020E
:103810001A702146474B5960DDE7464C2078C0F3CB
:10382000C000FFF7A3FE012200214748FFF717FA67
:10383000424803680133036063690133636166686A
:10384000B1B23F4D2A6802EB46029B00013392FB66
:10385000F3F292B2891A89B22A6802EB460292FB0D
:10386000F3F603FB16232B60A26803689A4207D87D
:10387000E26862612278022060F302022270C9E7E6
:103880002C4B1B699942C5DC304A118099B22C4BF4
:1038900000221A60274B1A78032060F302021A7084
:1038A000B8E7244C2078C0F3C000FFF75FFE234B3D
:1038B0001A6801321A60218AA2681B689A42A9D844
:1038C000E2686261214A118889B22278022060F39D
:1038D000020222709EE7174C2078C0F3C000FFF769
:1038E00045FE164A13680133136060690130606158
:1038F0006568A9B2124C236803EB450382000132CC
:1039000093FBF2F39BB2C91A89B2236803EB450318
:1039100093FBF2F502FB153222600028FFF67AAF26
:10392000044B1A786FF302021A7073E7002171E7F3
:10393000B40B0020940B00208C0B0020B00B002057
:10394000900B00200C000020000401408E0B002092
:1039500070B588B0002200921D4B196B41F0100128
:103960001963196B01F01001009100990192196B14
:1039700041F004011963196B01F0040101910199EF
:1039800002921A6B42F010021A631B6B03F01003D1
:103990000293029B02250395012404940594069545
:1039A0000C4E03A93046FEF73BFA039403A93046B8
:1039B000FEF736FA049506950323079305944023F2
:1039C000039303A90448FEF72BFA08B070BD00BFAB
:1039D00000380240001002400008024008B50022F2
:1039E00011462E20FEF77CF92E20FEF7ADF908BD1A
:1039F00030B589B000240094134B5A6C42F0020297
:103A00005A645B6C03F002030093009B0F4D104B54
:103A10002B604FF6FF73EB600F236B60AC602C6183
:103A20006C612846FFF788F83023019302940394D1
:103A300008230493059406940794224601A9284676
:103A4000FFF7DEF809B030BD00380240B40B0020AB
:103A50000004014008B5FFF77BFFFFF7C9FFFFF740
:103A6000BDFF08BD08B5FFF795FE08BD08B51148B4
:103A700000F0E0FA104800F0DDFA104800F0DAFA41
:103A80000F4800F0D7FA0F4800F0D4FA0E4800F0C3
:103A9000D1FA0E4800F0CEFA0D4800F0CBFA0D48EE
:103AA00000F0C8FA0C4800F0C5FA0C4800F0C2FA61
:103AB00008BD00BFA4A3000800A4000810A40008CB
:103AC00028A4000874A40008C0A400080CA50008DD
:103AD00078A50008A0A50008E0A5000800A6000839
:103AE0002DE9F04383B0044616461D460846FCF710
:103AF000D9FC0022224BFCF769FE02460B46214806
:103B000000F098FA3046FCF7CDFC00221C4BFCF785
:103B10005DFE02460B461C4800F08CFA2846FCF776
:103B2000C1FC06460F4614A3D3E90023FCF724FD8D
:103B3000804689460022124B30463946FCF746FE45
:103B400006460F4600220E4B40464946FCF73EFE15
:103B5000CDE9000132463B460C4800F06BFA0A9969
:103B60000B4800F067FA21460A4800F063FA03B0F8
:103B7000BDE8F083AFF300809A9999999919234091
:103B8000000059404CA6000864A600087CA6000866
:103B90009CA60008ACA6000870B586B0204A03AB0E
:103BA00007CA03C31A800026344629E000242BE00C
:103BB00013F0040F31D04FF47A70FEF76BF806ABB8
:103BC000234413F90C0CFCF76DFC0022154BFCF799
:103BD000D3FCFCF7E3FE05464FF47A7342F6E0624D
:103BE0001146FFF7D1FC00954FF47A7342F6E0627C
:103BF00011460D480068FFF773FF0134E4B2013647
:103C0000032E0ADC0B2CD1D0084B1B7813F0010FCC
:103C1000CED013F0040FF7D1CAE706B070BD00BFD5
:103C2000C4A600080000A940AC0B00200C00002036
:103C3000F0B583B0994B1B78F3B9994B1B7813F00F
:103C4000020F00F0B880974B1B786D2B25D0612BAD
:103C500000F08F80642B00F0C780732B00F0DF80B2
:103C60000D2B00F0F7803F2B00F0FF80742B40F00D
:103C70008480FFF791FF85E0884B00221A708A4B01
:103C80001B680093894B1B68894A12688949096837
:103C900089480068FFF724FFCFE7824B5B78202B31
:103CA00014D06F2B69D17F4B9B78762B65D17D4BE0
:103CB000DB78652B61D17B4B1B79202B5DD17F4855
:103CC00000F03AF9784B1860062411E07C4800F0C7
:103CD00033F9754B1860754B1B68754A1268754946
:103CE0000968FFF751FC774800F0A4F94AE0013475
:103CF0006C4B1B5D202B01D00D2BF8D10134694892
:103D0000204400F019F96B4B186000E00134654B5A
:103D10001B5D202B01D00D2BF8D1013461482044CC
:103D200000F00AF9624B186000E001345D4B1B5D46
:103D3000202B01D00D2BF8D101345A48204400F03B
:103D4000FBF80346594E3060594D5A4C564F2A687D
:103D500021683868FFF718FC3B68009333682A68CD
:103D6000216855480068FFF7BBFE564800F062F92D
:103D700008E04C4B5B78202B1FD0534800F05AF9D9
:103D8000FFF774FE464C23786FF341032370FDF771
:103D90004BFF237813F0010F0DD013F0040F67D100
:103DA0003F4B1B7813F0010F02D013F0040FF7D133
:103DB00013F0040F60D103B0F0BD414800F0BCF82F
:103DC000A0F1470247F6B9439A42D6D8394B18605A
:103DD000FCF768FB00223D4BFCF7F8FC02460B4663
:103DE0003B4800F027F9CDE72E4B5B78202BC4D160
:103DF000334800F0A1F8A0F1470247F6B9439A42D0
:103E0000BBD82B4B1860FCF74DFB00222F4BFCF767
:103E1000DDFC02460B462F4800F00CF9B2E7214BBF
:103E20005B78202BA9D1264800F086F8A0F10C027F
:103E300044F614639A42A0D81C4B1860FCF732FB7E
:103E40000022224BFCF7C2FC02460B46224800F03F
:103E5000F1F897E7154B1B68154A12681549096870
:103E600011480068FFF790FB8CE7FFF7FFFD89E73B
:103E70001A4800F0DFF893E7194800F0DBF80A4B26
:103E80001B680093094B1B68094A126809490968B5
:103E900009480068FFF724FE8DE700BF18000020E6
:103EA0000C000020400A0020200000201C00002000
:103EB0001400002010000020AC0B0020450A002058
:103EC000420A0020D0A6000808A7000800005940B8
:103ED0004CA60008D8A60008F0A6000824A70008F1
:103EE00038A70008DFF834D00D480E490E4A0023E9
:103EF00002E0D458C4500433C4188C42F9D30B4A9E
:103F00000B4C002301E013600432A242FBD3FDF707
:103F100027FE00F01BF8FDF7AFFC70470000022001
:103F200000000020D40900204CAB0008D409002078
:103F3000580C0020FEE700000A22002100F04ABAD7
:103F4000014B1868704700BF2400002070B50D4E6B
:103F50000D4D761BB61006D0002455F8043B0134F5
:103F60009847A642F9D1094E094D761B06F0E4F9AF
:103F7000B61006D0002455F8043B01349847A642F9
:103F8000F9D170BD40AB000840AB000848AB000859
:103F900040AB0008F0B4860746D0541E002A3CD03F
:103FA000CAB2034601E0013C37D303F8012B9D0759
:103FB000F9D1032C2AD9CDB245EA05250F2C45EAC3
:103FC000054534D9A4F1100222F00F0C03F12007AB
:103FD0001609674403F1100242E9045542E902550B
:103FE0001032BA42F8D1721C14F00C0F03EB02121B
:103FF00004F00F0613D0331F23F0030304331344DC
:1040000042F8045B9342FBD106F003042CB1CAB220
:104010001C4403F8012B9C42FBD1F0BC7047344692
:104020001346002CF3D1F8E714460346C1E71A46BD
:104030002646E0E70FB400B5074983B004AB086833
:1040400053F8042B8168019300F0D0F903B05DF8B8
:1040500004EB04B0704700BF2400002070B5054693
:1040600088B008460C46FDF74BF9224AAB6B049426
:104070000126441C04A9069202220394CDE90112F0
:10408000AC680590079623B3636E13F0010FB4F983
:104090000C309AB201D1980525D5910406D4626EF0
:1040A00043F4005322F40052A3816266284601AA19
:1040B000214603F0A3FA636E002814BF4FF0FF35CA
:1040C0000A25DA0702D4A3899B0506D5284608B03D
:1040D00070BD284603F0F2F8D6E7A06D03F02CFC83
:1040E000284608B070BDA06D03F024FCB4F90C3074
:1040F0009AB2D2E744A70008024B01461868FFF7BE
:10410000ADBF00BF240000202DE9F043654CD4F87A
:10411000009083B004460F4690461E46B9F1000F4A
:1041200003D0D9F83830002B79D0B8F1020F06D07F
:10413000B8F1010F00F2A480002EC0F2A180636EDE
:10414000D90752D52146484603F05CF8216B41B1AE
:1041500004F14003994202D0484603F04BF9002392
:104160002363B4F90C500023A36163602B0665D46C
:1041700025F44A6525F00305B8F1020FA58164D046
:1041800001AB6A462146484603F0D8FBA389184391
:10419000A081002E30D0002F2FD0D9F83830002B3E
:1041A00039D0009B2760B342B4F90C301CBF43F4F4
:1041B0000063A381B8F1010F04BF43F00103A381A1
:1041C0009AB213F00803C4E904762CD0D10755D570
:1041D0007642A661666E002116F00106A16027D026
:1041E0000026304603B0BDE8F083A3899A05A9D420
:1041F000A06D03F09FFBA5E7009E304603F018FC7E
:10420000074600283FD0A38943F08003A381D9F853
:104210003830002BC5D1484603F050F8C1E7484676
:1042200003F04CF881E7A360666E16F00106D7D163
:1042300093051CD5304603B0BDE8F083216948469C
:1042400003F0D8F8B4F90C5092E70026626E002112
:1042500004F1430345F00205A160D7074FF00101C7
:10426000C4E90431A5812360E4D4A805E2D4A06D9B
:1042700003F062FB304603B0BDE8F083A660D3E7ED
:104280004FF0FF36D6E7009DB54204D0284603F034
:10429000CFFB074620B9B4F90C504FF0FF36D5E7F5
:1042A0002E46B0E724000020012B2DE9F84F3AD02C
:1042B000242B984637D8464F0D46AC4615F8014B8F
:1042C0003E5D16F00806F8D12D2C69D02B2C0ABFC4
:1042D00095F800B0A3460CF102056FF00049002BE1
:1042E00040D0102B51D0B9FBF8FE0027BC4608FB8C
:1042F0001E9A07E0E64513D32FD008FB0C4C01278C
:1043000015F801BBABF13004092C05D9ABF1410420
:10431000192C0FD8ABF13704A34213DD002FE9DAD3
:104320004FF0FF37ECE7FFF70BFE1623036000208A
:10433000BDE8F88FABF16104192C03D8ABF1570439
:10434000A342EBDC002F25DB0EB1CCF1000C0AB14F
:104350008FBB11606046BDE8F88FA245CDDA4FF003
:10436000FF37CDE7BBF1300F03D04FF00A084346CB
:10437000B9E72B7803F0DF03582B1ED14FF010085C
:1043800095F801B043460235ADE7BBF1300F18D0C8
:104390009846A8E72223036052B1691ECC46D8E7AD
:1043A00095F800B04FF000490CF10205012696E7A0
:1043B000CC466046CFE7E146EFE74FF008084346BA
:1043C00091E72C7804F0DF04582CD7D098468AE780
:1043D000ADA7000830B4044C0D46134601462A46EA
:1043E000206830BCFFF760BF240000202DE9F04FAB
:1043F000D5B01C468B461746814603F093FA0368F6
:104400000D9418461693FCF77BFF1590B9F1000F39
:1044100004D0D9F83830002B00F0FD81DBF864308F
:1044200013F0010FBBF90C309AB202D19E0540F196
:10443000B48695040AD4DBF8642043F4005322F4D4
:104440000051ABF80C309AB2CBF86410100740F171
:10445000CA80DBF81030002B00F0C58002F01A0390
:104460000A2B00F0CE800023CDE92933CDE91833A3
:10447000CDE91A331193179308932BAB28939846E1
:104480003B78CDF82CB000210022CDE91212002B90
:1044900000F071813C4604E014F8013F002B00F06D
:1044A000C780252BF8D1E51B40F0C5802378002B71
:1044B00000F06181002309938DF883300693661C18
:1044C0004FF0FF33647807932B254FF0200A013615
:1044D000A4F120035A2B00F2CC80DFE813F06B022A
:1044E000CA00CA006502CA00CA00CA006A00CA003F
:1044F000CA0003021402CA000E024B02CA0045029F
:104500005B005B005B005B005B005B005B005B00D3
:104510005B00CA00CA00CA00CA00CA00CA00CA00BA
:104520005501CA00A6018302550155015501CA0073
:10453000CA00CA00CA007D02CA00CA00DB02CA0063
:10454000CA00CA00B401CA001802CA00CA0004089E
:10455000CA00CA00CA00CA00CA00CA00CA00CA000B
:104560005501CA00A601DA01550155015501F002B5
:10457000DA01A001CA007402CA000D030108F902A1
:10458000A001CA00B4018200FD07CA00CA00D50715
:10459000CA008200A4F13003002216F8014B02EB9E
:1045A000820203EB4202A4F13003092BF5D90992F0
:1045B0008EE7484603F0B6F943681A931846FCF7AD
:1045C0009FFE034648461C461B9303F0ABF98268E6
:1045D000189234B1189B23B1189B1B78002B41F023
:1045E000BA80347873E75946484601F003FD002845
:1045F00041F04983BBF80C2002F01A030A2B7FF428
:1046000032AFBBF90E30002BFFF62DAFDBF8643074
:10461000DB0702D4960541F16C8123463A465946A0
:10462000484601F0A5FC0890089855B0BDE8F08F09
:10463000E51B00F0A080DDE9293201332A44072B75
:10464000CDE92932C8F80070C8F8045006DC08F13A
:104650000808089A23782A44089228E70B9928AA80
:10466000484604F089FB002841F025840DF1AC0890
:10467000EFE70E96002C7ED000231A464FF0010A79
:104680008DF8EC408DF883300C9207920F921492C3
:104690001092CDF828A03BAF069B069913F00203B9
:1046A00018BF0AF1020A11F0840B05D10999A1EB98
:1046B0000A06002E00F3DA832A9D72B1299A01328C
:1046C00001350DF183000121072ACDE92925C8E92B
:1046D000000100F30C8408F108086BB1299B013339
:1046E000023521A90222072BCDE92935C8E900129C
:1046F00000F30C8408F10808BBF1800F00F08F82F2
:10470000079B0A9A9E1A002E00F3CE82069BDE05B6
:1047100000F12982299B0A9AC8F8007001331544D8
:10472000072B2A95C8F80420299300F3338308F156
:104730000808069B5E0705D5099BA3EB0A04002C1D
:1047400000F3F183DDE908325245ACBF9B185344B6
:104750000893002D40F0E182002329930C9B1BB1AC
:104760000C99484602F046FE0DF1AC080E9F3B78CE
:10477000002B7FF48FAE2A9BDDF82CB0002B40F08D
:10478000E08700232993D7E20D9B0E96073323F091
:1047900007031946F1E80223CDE91223DDE912AB44
:1047A0002BF000450D91B84B504629464FF0FF3293
:1047B000FCF788FF002840F04E85B34B5046294651
:1047C0004FF0FF32FCF760FF002840F044850022E4
:1047D000002350465946FCF74DFF002841F08481E4
:1047E0009DF88320A94FAA4B069800214FF0030A99
:1047F00020F080000C910690472CC8BF1F46CDF8D2
:1048000028A007910F9114911091002A3FF444AF12
:104810000AF1010A40E7484602F050FDFEE5069B1A
:10482000347843F02003069351E60D9B0E9653F81F
:10483000042B8DF8EC2000210A464FF0010A0D935D
:104840008DF8831020E70D9D0E9655F8047B002609
:104850008DF88360002F00F07286079A13460133AB
:1048600000F01B8731463846FCF7BAFD0C90002853
:1048700001F0C3810C9B0796DA1B0A92334622EAA9
:10488000E27A0D959DF883200C930F931493109367
:10489000BBE7069B0E969D0640F1AD800D9B07334E
:1048A00023F007031946F1E802230D9192469B4637
:1048B000002A73F10003C0F2AF80079B013300F0C0
:1048C0009D85069B23F080055AEA0B0340F0BD82CC
:1048D000079B002B40F0C0820695002307930A93A4
:1048E00054AFC3E00D9B53F8042B0992002A80F2C9
:1048F0005D84099A0D9352420992069B347843F0E5
:1049000004030693E3E534788DF88350DFE5069BD6
:104910000E9643F01005AF0640F11A840D9B073345
:1049200023F00703F3E802AB0D93012300228DF877
:104930008320079A114601317DD025F08001069130
:104940005AEA0B0140F07D82002A40F07486002B69
:10495000C3D115F001030A9300F05B8430238DF876
:104960004F310DF24F1781E0069B347843F08003FE
:104970000693ACE5324612F8014B2A2C01F0D382A3
:10498000A4F13003092B164698BF002201F273816F
:1049900016F8014B02EB820203EB4202A4F1300352
:1049A000092BF5D9079293E5069B347843F0010370
:1049B00006938CE59DF88330002B7FF412AE34789B
:1049C0008DF883A083E53478069B6C2C00F0B085CD
:1049D00043F0100306937AE5069B347843F008030E
:1049E000069374E5069B0E9643F010030693069B10
:1049F0009D063FF553AF069BD80640F11C840D9BE6
:104A000053F8042B0D934FEAE27B5B46002A73F1C7
:104A100000039246BFF651AF079A069DDAF1000AED
:104A200011464FF02D036BEB4B0B01318DF88330AA
:104A30004FF0010381D1012B00F00782022B54AF0C
:104A400072D117984FEA1A130AF00F0143EA0B7359
:104A50004FEA1B129A469346435C07F8013D5AEA17
:104A60000B03EFD154ABDB1B06950A930023079988
:104A70000C930F93149310930A9B9DF883208B4201
:104A8000B8BF0B469A46C0E6FFFFEF7F48A7000875
:104A90004CA70008069B0E9643F010030693069B56
:104AA000990640F165830D9B073323F00703F3E874
:104AB00002AB0D93069B23F48065002336E7347820
:104AC000069B682C00F02D8543F040030693FEE41E
:104AD0000D9B0E9647F6300153F8042BADF8841069
:104AE00006990D93B14B179341F0020592464FF092
:104AF000000B0223782419E7069B0E969E0600F110
:104B00007184069BDD0600F19B85069B5C0600F127
:104B10003886069B980540F193850D9B089953F8BC
:104B2000042B0D93117021E64FEADA0242EA4B7230
:104B30004FEADB010AF007038B46924630335AEA0C
:104B40000B013A4607F8013DEED1E9078AD5302B33
:104B500088D03023023A07F8013C54AB9B1A0695E3
:104B60000A93174682E7652C40F32681DDE912019E
:104B700000220023FCF774FD002800F00E82299B20
:104B80008B4AC8F80020013301350122072BCDE9FB
:104B90002935C8F8042000F3308508F10808229B65
:104BA000119A934280F2F482299B169AC8F8002049
:104BB000159AC8F8042001331544072B2A95299328
:104BC00000F3A28408F10808119B5C1E002C7FF7FB
:104BD000B0AD102C299BDFF8DCB140F31F855F4698
:104BE0001026DDF82CB005E008F10808103C102C68
:104BF00040F3138501331035072BCDE92935C8E97A
:104C00000076F1DD28AA5946484604F0B5F8002898
:104C100040F08D80DDE929350DF1AC08E6E7099B10
:104C2000A3EB0A06002E7FF76BAD102E299ADFF852
:104C300084B126DD2946102325465C46DDF82CB0DC
:104C400004E0103E102E08F1080817DD0132103183
:104C5000072ACDE92921C8E90043F2DD28AA5946EF
:104C6000484604F089F8002861D1103E102EDDE995
:104C700029210DF1AC084FF01003E7DCA3462C46C8
:104C80000D4601323544072ACDE92925C8F800B080
:104C9000C8F8046000F32B84079B0A9A9E1A002E22
:104CA00008F108087FF732AD102E299ADFF804B119
:104CB00025DD2946102325465C46DDF82CB004E0AE
:104CC000103E102E08F1080816DD01321031072AB7
:104CD000CDE92921C8E90043F2DD28AA5946484612
:104CE00004F04AF818BB103E102EDDE929210DF121
:104CF000AC084FF01003E8DCA3462C460D46013209
:104D00003544072ACDE92925C8F800B0C8F8046061
:104D100000F3118208F10808F8E40B9928AA484624
:104D200004F02AF800283FF417ADDDF82CB00C99F8
:104D300011B1484602F05EFBDBF8643013F0010F5E
:104D4000BBF80C3002D19C0540F12E84580600F1CE
:104D5000A687089855B0BDE8F08F299B1699C8F82A
:104D600000101599C8F8041001330D44072B2A953B
:104D7000299300F3AF8508F10808002AC0F29E8746
:104D8000119A01331544072BCDE92935C8E9007282
:104D90007FF7CDAC0B9928AA484603F0EDFF002819
:104DA000C3D12A9D0DF1AC08C3E400BF58A7000889
:104DB00088A700089CA70008119B299C012B40F3A1
:104DC0007281013401350123072CCDE92945C8F84A
:104DD0000070C8F8043000F3CD8308F10808159B73
:104DE000169A01341D44072CCDE92945C8E9002352
:104DF00000F3CD8308F108080023DDE91201002249
:104E0000FCF72EFC119B002840F06A81013B013425
:104E100001371D44072CCDE92945C8F80070C8F8B2
:104E2000043000F3508108F10808199A0134154440
:104E300024AB072CCDE92945C8E900327FF777ACD0
:104E4000A8E7012B069D7FF4F9ADBBF1000F08BF69
:104E5000BAF10A0F80F0DA820AF1300A01238DF8E4
:104E60004FA106950A930DF24F17FFE5102EDDE9CD
:104E700029212ADD1C933B4640464F46A04610257B
:104E80000B9C994604E0103E102E00F1080016DD40
:104E90000132C84B1031072ACDE92921C0E900357C
:104EA000F1DD28AA2146384603F066FF002840F0CD
:104EB0009483103E102EDDE929212BA8E8DC44461E
:104EC0001C9B80464846B94607460132B948C8F897
:104ED00000007518072ACDE92925C8F8046000F3F9
:104EE0006B839DF8832008F10808FFF7E6BB0B9958
:104EF0001C9328AA484603F03FFF00287FF415AF13
:104F00002A9D1C9B0DF1AC08FFF7E7BB0B9928AA63
:104F1000484603F031FF00287FF407AF2A9D0DF1CA
:104F2000AC08FFF7E9BB102C299B1FDD0B9F102657
:104F300004E0103C102C08F1080817DD01339D4AED
:104F40001035072BCDE92935C8E90026F1DD28AA5F
:104F50003946484603F010FF002840F05B83103CC0
:104F6000102CDDE929350DF1AC08E7DC0133914A5D
:104F7000C8F800202544072BCDE92935C8F804409E
:104F80007FF7E0AB0B9928AA484603F0F5FE00280E
:104F90007FF4CBAE2A9DFFF7D5BB229A002A40F3BF
:104FA0000D81DDE910329342A8BF1346002B1C4649
:104FB0000DDD299BC8F8007001332544072B2A9585
:104FC000C8F80440299300F3B48508F10808109B41
:104FD000002CA8BF1B1B002B1C4600F33983109B21
:104FE0003B449B46069B590500F1E284229B119AA3
:104FF000934203DB069AD20740F1B483299A1699AB
:10500000C8F800101599C8F8041001320D44072A99
:105010002A95299200F3C38508F10808119ABC1853
:10502000A4EB0B04D31A9C42A8BF1C46002C0DDD38
:10503000299AC8F800B001322544072A2A95C8F8F1
:105040000440299200F3078608F10808002CACBF41
:105050001C1B1C46002C7FF76CAB102C299BDFF827
:1050600058B140F3DB825F461026DDF82CB005E036
:1050700008F10808103C102C40F3CF8201331035A2
:10508000072BCDE92935C8E90076F1DD28AA594674
:10509000484603F071FE00287FF449AEDDE929356A
:1050A0000DF1AC08E6E7069BDB073FF58AAE01345D
:1050B00001350123072CCDE92945C8F80070C8F84F
:1050C00004307FF7B0AE0B9928AA484603F054FE8F
:1050D00000287FF42AAEDDE929450DF1AC08A4E6ED
:1050E0005E1E002E7FF7A1AE102EDFF8CCB040F38D
:1050F000E082CDF81CA01027CA46DDF82C9005E010
:1051000008F10808103E102E40F3D082013410350B
:10511000072CCDE92945C8E900B7F1DD28AA4946A1
:10512000504603F029FE002840F0A985DDE9294515
:105130000DF1AC08E6E70B9928AA484603F01CFEDF
:1051400000287FF4F2AD2A9D0DF1AC08FFF7DEBA1E
:105150000D9AEE0652F8041B0D924FF001035DD438
:10516000680658D51FFA81FA4FF0000BFFF7DEBB37
:10517000069BDA0657D4069B5B0640F1B2820D9B74
:1051800053F8042B0D931FFA82FA4FF0000B91E4B1
:10519000069BD8077FF5CDAA06E5DBF8580002F09C
:1051A000C9FBBBF90C309AB2FFF743B934780D93C1
:1051B000FFF78DB98CA700089CA70008299BC3495D
:1051C000C8F80010013301350121072BCDE929353D
:1051D000C8F8041000F3968408F10808002A7FF448
:1051E000BCAD069B119A03F0010313433FF4A1AA3F
:1051F000299B169AC8F80020159AC8F80420013394
:105200001544072B2A95299300F3648308F10808B5
:10521000B6E554AF2AE4AA0500F1AD828A464FF004
:10522000000BFFF783BB0D9B53F8042B0D939246A5
:105230004FF0000B3EE4069B590640F161820D9B46
:1052400053F8042B0D930FFA82FA4FEAEA7B524689
:105250005B46FFF72DBBDDE912010B460246FCF76A
:1052600031FA0146002840F01686612C00F08A854C
:10527000412C00F09582079B24F020065A1C0A96C8
:1052800000F0AA85472E00F08285DDE91212069B08
:10529000B2F1000A43F4807310934FF00003C0F2A0
:1052A000CA851C930C938B46462E5A46534600F0F3
:1052B0008484452E40F05784079926A84D1C23A9C5
:1052C0000490039122A80221019502900091484682
:1052D00000F096FF07460544069B0F93109B06932C
:1052E0005846514600220023FCF7BAF9002800F086
:1052F00041832B46DB1B11930A9B472B00F00C8349
:105300000A9B462B00F08684229B1093109B0A9ADE
:10531000013B412A229300F08885E2B20021002B54
:10532000B8BF109B8DF89020BABFC3F101032D22A6
:105330002B22092B8DF8912040F368850DF19F0EEB
:10534000DFF890C175468CFB0321DA17C2EBA1028E
:1053500002EB8201A3EB41011E463031632E284649
:1053600005F8011C134605F1FF35ECDC3033DAB2E9
:10537000831E9E45294605F8012C40F2DF850DF17C
:10538000920301E011F8012B03F8012B8E45F9D1AE
:105390000DF1A1030DF192021B1A134424AA9B1ACA
:1053A0001993119B199A012B1A440A9240F395857F
:1053B0000A9B159A13440A930F9B23F480660023DB
:1053C0000F93149310930A9B46F48072069223EA7B
:1053D000E37A1C9B002B40F0C6829DF88320079344
:1053E000FFF713BA0D9B53F8041B0D93089BDD17B1
:1053F0001A462B46C1E90023FFF7B8B9BBF1000FED
:1054000008BFBAF10A0F069DFFF426AD05F48066C9
:1054100000230694CDF828903446C14654AFA846E0
:105420001E46189D09E0FBF7D5FDBBF1000F08BF34
:10543000BAF10A0F1FD382468B460A220023504638
:105440005946FBF7C7FD94460CF1300C07F801CC28
:10545000504659460A2200230136013F002CE2D073
:1054600095F800C06645DED1FF2EDCD09B4508BF15
:10547000924580F08B821895069C11964546C84649
:10548000DDF82890FFF7EEBA114B0E961793069BA6
:105490009F0664D50D9B073323F00703F3E802ABA7
:1054A0000D93069AD0070AD55AEA0B0307D030238A
:1054B00042F002028DF8854006928DF88430069BFA
:1054C00023F480650223FFF731BA00BF88A70008E4
:1054D00058A7000867666666069D0E96FFF71BBA1A
:1054E0000E96FFF7DCBAAB4B0E961793CFE70B99EE
:1054F00028AA484603F040FC00287FF416AC2A9DF9
:105500000DF1AC08FFF7FCB80B9928AA484603F048
:1055100033FC00287FF409AC2A9D0DF1AC08FFF79D
:1055200053BB43F40073747806930136FEF7CFBF84
:1055300043F02003747806930136FEF7C8BF079B3B
:105540000F97062B28BF06230797149710970C97E1
:105550003A469A46904F0D950A93FFF756B9069B27
:10556000DE063ED50D9B53F8042B0D9392464FF06B
:10557000000B96E70B9928AA484603F0FDFB00288C
:105580007FF4D3ABDDE929450DF1AC0827E40B9995
:1055900028AA484603F0F0FB00287FF4C6ABDDE9FB
:1055A00029450DF1AC0827E4DBF8580002F0C4F9F6
:1055B000BBF80C30FFF7CABB0B991C9328AA4846CE
:1055C00003F0DAFB00287FF4B0AB9DF883202A9D1E
:1055D0001C9B0DF1AC08FFF770B8B946A346FFF766
:1055E000A6BB069B5D066ED50D9B53F8042B0D9351
:1055F0001FFA82FA4FF0000B53E70B9928AA48468E
:1056000003F0BAFB00287FF490AB2A9D0DF1AC08A3
:10561000FFF7C5BABB46FFF78ABBBB46013325443B
:10562000072BC8F800B0CDE92935C8F804407FF74A
:105630007EA8FFF7AFBB012B069D7FF4FFA90BE40B
:105640000D9B089953F8042B11600D93FFF78EB84A
:10565000102C299BDFF844B165DD2A4610265D46F3
:10566000DDF82CB004E008F10808103C102C58DDDF
:1056700001331032072BCDE92932C8E90056F2DD9B
:1056800028AA5946484603F077FB00287FF44FAB21
:10569000DDE929320DF1AC08E7E73846FBF730FECB
:1056A0003346079602460A90FFF7E9B8D146DDF87F
:1056B0001CA001343544072CCDE92945C8E900B6C2
:1056C0007FF7B1ABFFE4069B13F4007F0D9B53F80B
:1056D000042B0D9314BF5FFA82FA92464FF0000B31
:1056E000DFE6069B13F4007F0D9B53F8042B0D930C
:1056F00014BF5FFA82FA92464FF0000BFFF7DAB957
:10570000069B13F4007F0D9B53F8042B3FF47AA9FA
:105710004FFA82FA4FEAEA7B0D9352465B46FFF757
:10572000C7B8AB46154601332544072BCDE92935CB
:10573000C8F800B0C8F8044000F3E18008F1080898
:105740004DE4484628AA594603F016FB00283FF4CA
:1057500018A8FFF7F1BA069B347843F480630693E8
:10576000FEF7B5BE119ABC18A4EB0B04D31A9C42E9
:10577000A8BF1C466AE45FFA81FA4FF0000BFFF7FE
:10578000D5B80D9B089953F8042B0D931180FEF7A3
:10579000EDBF00BF6CA7000880A700089CA7000809
:1057A00030238DF8843058238DF88530069B43F0E4
:1057B0000205079B632B00F3BF8200230C933BAFD2
:1057C000DDE91212069B069543F4817324F020064E
:1057D000B2F1000A10930A96C0F2A38100238B460F
:1057E0001C93612C00F0FC82412C7FF45DAD584687
:1057F000514622AA03F0C0F900224FF07F53FAF776
:10580000BBFE0022002382468B46FBF729FF08B12E
:1058100001232293B74B0F93079B1D94CDE91E974D
:105820003E465D1E0F9FCDF8508003E0FBF718FF4A
:10583000013D08BBB04B002250465946FAF79CFE8A
:1058400089468046FBF7AAF80446FAF72BFE024683
:105850000B4640464946FAF7D7FC17F804C0B5F1A5
:10586000FF3FB046824606F801CB8B464FF0000260
:105870004FF00003A946D9D1A04BCDF844800022B7
:1058800050465946DDF850801F9F14944D46DDE97F
:105890001D49FBF70DFF002840F05882974B5046FA
:1058A00059460022FBF7DCFE18B1149BDB0700F120
:1058B0004D82002D2B4606DB01333344302206F89F
:1058C000012BB342FBD1069B0F93F31B1193109B4B
:1058D000069311E50B9928AA484603F04DFA0028D3
:1058E0007FF423AADDE92935229A0DF1AC08FFF7F0
:1058F00044BADBF8580002F01FF8FEF78EBE0B9991
:1059000028AA484603F038FA00287FF40EAA2A9DF8
:105910000DF1AC08FFF763BB229B1093D81C02DB90
:10592000079A934204DD023C24F020030A93EDE43D
:10593000DDE910318B42C0F284810F9AD20740F129
:10594000B782159A13440A930F9B5B0503D5109BEE
:10595000002B00F372820A9B672423EAE37A002378
:105960000F93149335E52D2200238DF883200793A0
:10597000FEF74EBF269BAB42BFF4BCAC30215A1C95
:1059800026921970269B9D42F9D8B3E41B9B1A9965
:10599000FF1A1A46384603F07FF96B7803B10135D8
:1059A0000A220023504659460026FBF713FB42E526
:1059B000119BCDF828A04246DDF850801097FB18C7
:1059C00007935E46DDF86CA0DDF82CB0189F0F9BA6
:1059D0002946B8F1000F2ED0002B6AD1013F08F103
:1059E000FF38299B1A98106001335144072B2A91E4
:1059F000C2F804A0299360DC083207983B78841B26
:105A00009C42A8BF1C46002C0ADD299B166001336E
:105A10002144072B2A915460299359DC3B780832A2
:105A2000002CACBF1C1B1C46002C14DC1E440F9B1E
:105A3000B8F1000FD0D1002B3BD11897DDE91073DE
:105A4000FB189E42B346DDF828A090460D4628BFBD
:105A50009B46FFF7CBBA102C29981DDD102504E0DA
:105A6000103C102C02F1080216DD0130244B1031DD
:105A70000728CDE92901C2E90035F1DD28AA5946F8
:105A8000484603F079F900287FF451A9103C102C06
:105A9000DDE929012BAAE8DC0130194B1360214410
:105AA0000728CDE92901546050DC3B7808321E44B8
:105AB000BDE70F9B013B0F9393E728AA5946484641
:105AC00003F05AF900287FF432A92A992BAA94E707
:105AD00028AA5946484603F04FF900287FF427A921
:105AE0003B782A992BAA9BE72D228DF88320FEF77D
:105AF00079BE00BF6CA70008000030400000E03F06
:105B00009CA700080B9928AA484603F035F90028FD
